:100000000C9420020C9448020C9448020C946F0744
:100010000C946F070C946F070C9448020C944802E0
:100020000C9448020C9448020C9448020C94480228
:100030000C9448020C94BA110C9448020C94480297
:100040000C9493150C9448020C94DF180C9411191D
:100050000C9448020C9448020C9448020C944802F8
:100060000C9440130C944802990DAB0DB90DBB0DC7
:10007000C90DCB0DCE0DEB0DDC0D02117E108110E4
:10008000A010A310A610C81053746F7020475053CF
:100090002074657374004750532074657374696EDF
:1000A000672E2E2E7320746F2053746F700044528D
:1000B0004120757064617465206572726F720044CE
:1000C00052412075706461746520646F6E650065CF
:1000D00072726F72006F6B2071756974002D2D2D17
:1000E0002D2D2D2D2D2D2D2D003020517569742095
:1000F0006D656E750034205465737420475053202D
:1001000028666F72206C6174657220736F667477F5
:1001100061726520757067726164652900332073B0
:100120006574204452412038313820746F206E6F3E
:10013000726D616C2066696C746572003220736543
:1001400074204452412038313820746F20766F6C0F
:10015000756D65206D6178203800312073657420DD
:100160004452412038313820746F203134342E38D5
:10017000303030204D687A00436F6E666967206DBD
:10018000656E75002D2D2D2D2D2D2D2D2D2D2D0038
:100190006D20666F7220626F6F74206D656E7500E2
:1001A00020202020204634474F482032303136006E
:1001B00020204150525320646967692076312E30E7
:1001C000004E6220736174203A00486F7572203AC5
:1001D0000067676120666F756E6400808183848626
:1001E00087898A8C8D8F9192949597989A9B9D9EE2
:1001F000A0A1A3A4A6A7A9AAACADAFB0B2B3B4B650
:10020000B7B9BABBBDBEBFC1C2C3C5C6C7C9CACBD9
:10021000CCCECFD0D1D2D4D5D6D7D8D9DADBDDDE8B
:10022000DFE0E1E2E3E4E5E6E6E7E8E9EAEBECEC6F
:10023000EDEEEFF0F0F1F2F2F3F4F4F5F5F6F7F796
:10024000F8F8F9F9F9FAFAFBFBFBFCFCFCFDFDFD03
:10025000FDFEFEFEFEFEFEFEFEFEFEFFFEFEFEFEBE
:10026000FEFEFEFEFEFEFDFDFDFDFCFCFCFBFBFBC1
:10027000FAFAF9F9F9F8F8F7F7F6F5F5F4F4F3F214
:10028000F2F1F0F0EFEEEDECECEBEAE9E8E7E6E6B0
:10029000E5E4E3E2E1E0DFDEDDDBDAD9D8D7D6D58D
:1002A000D4D2D1D0CFCECCCBCAC9C7C6C5C3C2C1A8
:1002B000BFBEBDBBBAB9B7B6B4B3B2B0AFADACAAEE
:1002C000A9A7A6A4A3A1A09E9D9B9A989795949256
:1002D000918F8D8C8A8987868483817F7E7C7B79D0
:1002E0007876757372706E6D6B6A6867656462614B
:1002F0005F5E5C5B595856555352504F4D4C4B49BD
:10030000484645444241403E3D3C3A393836353412
:100310003331302F2E2D2B2A292827262524222140
:10032000201F1E1D1C1B1A1919181716151413133C
:100330001211100F0F0E0D0D0C0B0B0A0A090808F5
:100340000707060606050504040403030302020268
:10035000020101010101010101010101010101018C
:10036000010101010101020202020303030404046A
:10037000050506060607070808090A0A0B0B0C0DF7
:100380000D0E0F0F1011121313141516171819193B
:100390001A1B1C1D1E1F2021222425262728292A3E
:1003A0002B2D2E2F30313334353638393A3C3D3E03
:1003B00040414244454648494B4C4D4F505253559D
:1003C0005658595B5C5E5F6162646567686A6B6D15
:1003D0006E707273757678797B7C7E000000080001
:1003E00002010000030407000000000000000001FB
:1003F00002040810204080010204081020010204B9
:10040000081020040404040404040402020202028A
:100410000203030303030300000000230026002956
:100420000000000000250028002B00000000002430
:100430000027002A0000E002FA0DA2124119F90279
:1004400011241FBECFEFD8E0DEBFCDBF11E0A0E08A
:10045000B1E0E2E3FBE302C005900D92A43FB107D7
:10046000D9F727E0A4EFB1E001C01D92AE31B20789
:10047000E1F714E0CEE3D4E004C02297FE010E942D
:10048000C21CC633D107C9F70E9485190C948C1D74
:100490000C94000084E294E00C94D20E84E294E088
:1004A0000C94AD09DC01ED91FC910190F081E02DFF
:1004B00009949091F60191110AC0803C49F581E0C0
:1004C0008093F6011092F8011092F701089591308F
:1004D00031F481111DC082E08093F60108959230BD
:1004E000B9F4803C81F02091F7013091F801A90125
:1004F0004F5F5F4F5093F8014093F701F901EF53BD
:10050000FD4F808308951092F60181E08093F501FC
:10051000089580E090E0000000000000000000006E
:100520000196843428E49207B1F70895CF93C82F39
:1005300061E083E00E943B170E9489020E948902C9
:1005400095B5987F916095BD2EE432E03093B40567
:100550002093B30581E080936F00C23059F0C3301F
:1005600071F0C13099F44091F7015091F80161ECBC
:1005700072E008C040919C0469EF71E003C048E458
:1005800060E071E084E294E00E94690A60E083E048
:100590000E943B1710926F008AE492E09093B4059A
:1005A0008093B30581E080936F0060E070E085E0A8
:1005B0000E947A1685B5887F836085BDCF910895A6
:1005C0000F9320E046E067E081EC93E00E94420850
:1005D00020E049E068E082EA93E00E94420800E0FF
:1005E00024E044E167E286E993E00E946D140F91F4
:1005F000089582EA93E00E94E90781EC93E00C946D
:10060000E907CF92DF92EF92FF920F931F93CF9360
:1006100060E971E081E896E00E94021A61E080E101
:100620000E943B170E94DD15609391037093920323
:100630008093930390939403CFEF88EEC82E83E0CA
:10064000D82EE12CF12C0E94DD1560938D03709360
:100650008E0380938F0390939003009191031091E8
:1006600092032091930330919403DC01CB01801B12
:10067000910BA20BB30B8093890390938A03A093F1
:100680008B03B0938C0381E896E00E949A171816AA
:1006900019061CF16091890370918A0380918B0384
:1006A00090918C03A70196010E94A11C8C2F992781
:1006B00087FD9095A92FB92F281739074A075B079F
:1006C000A9F0CF5F6C2F772767FD7095605D7F4F36
:1006D00081E896E00E94520209C081E896E00E94FB
:1006E000B3178D369105B1F681E017C0809189036B
:1006F00090918A03A0918B03B0918C038838934129
:10070000A105B1050CF49FCF60E080E10E943B178A
:1007100081E896E00E94FE1980E0CF911F910F9131
:10072000FF90EF90DF90CF900895AF92BF92CF925D
:10073000DF92EF92FF920F931F93CF93DF93EC0121
:100740006B018091F40180936E0086E993E00E9432
:10075000EC145E0100E010E0F50161915F0170E0D2
:100760007595679586E993E00E942F150F5F1F4FDF
:100770000630110589F76CE286E993E00E942F1597
:1007800007E010E0FE01E00FF11F608170E0759559
:10079000679586E993E00E942F150F5F1F4F0D307C
:1007A000110581F76D85669570E0605371094AE027
:1007B00050E086E993E00E94C91A6DE286E993E071
:1007C0000E942F15FE0180E090E08C159D0534F409
:1007D00021910196203FC9F77C01F7CF41E060E00D
:1007E00086E993E00E94FA14EC0EFD1E00E010E092
:1007F000AA24A394B12CC7018C1B9D0B8C159D05BD
:10080000C4F4F70161917F0186E993E00E942F15FE
:100810000F5F1F4F0431110571F7FFEFAF1ABF0AC9
:100820004A2D60E086E993E00E94FA1400E010E0AF
:10083000E2CF10926E00DF91CF911F910F91FF9048
:10084000EF90DF90CF90BF90AF90089581E896E051
:100850000E949A171816190634F481E896E00E944F
:10086000B3170E9459028091F501813021F08091E7
:100870009B04813049F50E9489020E94890281E827
:1008800096E00E94F6178091F501813069F460913D
:10089000F7017091F80181EC92E00E94950381E0EC
:1008A0000E9496021092F50180919B04813061F4C0
:1008B00060919C0470E089EF91E00E94950382E0D2
:1008C0000E94960210929B04089540E855E260E071
:1008D00070E082EA93E00E947208809161048111C5
:1008E0001BC082EA93E00E940907892BB1F382EAD8
:1008F00093E00E947C0680939503682F772767FD1D
:10090000709581E896E00E9452026091950384E21E
:1009100094E00E947E0BE1CF86E0E3E4F4E0AFE1F7
:10092000B1E001900D928A95E1F787E0EAE4F4E006
:10093000A6E2B1E001900D928A95E1F7809154040E
:1009400080932D0188E0E5E5F4E0AFE2B1E00190AD
:100950000D928A95E1F7809160048093370182EAD5
:1009600093E00C940009DF92EF92FF920F931F9394
:10097000CF93DF93EC0140E855E260E070E081EC5A
:1009800093E00E947208BE0181EC93E00E94141A69
:100990000E94DD15609391037093920380939303FB
:1009A00090939403D12C81EC93E00E9409071816D0
:1009B00019063CF481EC93E00E947C06FE2CED2CA1
:1009C000D82E0E94DD1560938D0370938E03809363
:1009D0008F039093900300919103109192032091C3
:1009E000930330919403AB01BC01401B510B620B8C
:1009F000730B4093890350938A0360938B03709326
:100A00008C038AE0D8120FC0BE0181E896E00E94F4
:100A1000141A81EC93E00E94000980E3F8120AC0E6
:100A20006FEB70E009C0403D5740610571050CF463
:100A3000BACFEACF6EEA70E081E896E0DF91CF911D
:100A40001F910F91FF90EF90DF900C94021ACF93BB
:100A500040E855E260E070E082EA93E00E947208AC
:100A600066E970E081E896E00E94021AC0E081E841
:100A700096E00E949A17892B29F081E896E00E945F
:100A8000B317C82F82EA93E00E940907892B71F0FF
:100A900082EA93E00E947C0680939503682F772773
:100AA00067FD709581E896E00E945202C337F9F61F
:100AB00068E870E081E896E00E94021A81E896E01A
:100AC0000E94B31782EA93E0CF910C940009CF9370
:100AD00064E871E081E896E00E94021A68E771E03C
:100AE00081E896E00E94021A6AE571E081E896E0EA
:100AF0000E94021A6CE371E081E896E00E94021AFB
:100B00006DE171E081E896E00E94021A65EF70E005
:100B100081E896E00E94021A69EE70E081E896E0B2
:100B20000E94021A6DED70E081E896E00E94021AC0
:100B300081E896E00E949A1718161906CCF781E80A
:100B400096E00E94B317C82F882391F3823379F07F
:100B50003CF48033A1F08133C9F480E591E00CC00E
:100B6000833341F0843391F40E942705B1CF8FE79E
:100B700091E002C081E991E00E94B304A9CF65ED44
:100B800070E081E896E0CF910C94021A6FEC70E06F
:100B900081E896E00E94021AC03309F099CFCF9104
:100BA0000895EF92FF920F931F9326E040E855E2DD
:100BB00060E070E081E896E00E947D1886E993E0AD
:100BC0000E94351561E086E993E00E948E1586E962
:100BD00093E00E94EC1460EB71E086E993E00E94E0
:100BE000D21942E060E086E993E00E94FA1460EADC
:100BF00071E086E993E00E94D21961E082E00E94F0
:100C0000021761E085E00E94021761E082E00E9425
:100C10003B1761E083E00E94021760E083E00E94DE
:100C20003B170E940103813011F40E94670583E4A1
:100C300080937C0080917C00806280937C0084E0C3
:100C400080937A0080917A00806280937A0010927B
:100C50007B0080917E00816080937E0080917A008D
:100C6000806880937A0080917A00806480937A0013
:100C700049EFE42E41E0F42E08E918E020EB34E0DF
:100C800040E150E065E070E084E294E00E942F09CA
:100C90000E94650480E1809381001092800021E031
:100CA0002093B50580E692E09093B7058093B60552
:100CB000909387008093860081E1809381008AE48D
:100CC00092E09093B4058093B30520936F0060ED9C
:100CD00077E080E090E00E940C1680916E00809397
:100CE000F40110926E001092680083E01F910F9142
:100CF000FF90EF900C9496022091220430912304EF
:100D000028173907B9F49091E0038091E10398170F
:100D100089F0E091E003F0E0EE51FC4F80812091FA
:100D2000E00330E02F5F3F4F2F7333272093E00322
:100D300090E008958FEF9FEF08951F93CF93DF9377
:100D4000DC015C968D919C915D97009749F481E060
:100D500090E013969C938E93129780E090E03BC0B6
:100D60005196ED91FC91529750962C915097322FBD
:100D700030951FB75E964C915E9741FB772770F9CF
:100D800041FD6095F8944081772311F0422B01C01A
:100D900043234083EC012197F1F748E0508160FF45
:100DA00002C0522B01C053235083EC012197F1F76D
:100DB0006695415099F78081772311F0832301C014
:100DC000822B80831FBF5C968D919C915D970197CC
:100DD000F1F781E090E0DF91CF911F91089520918C
:100DE0002204309123042817390781F49091E003FD
:100DF0008091E103981751F0E091E003F0E0EE51AB
:100E0000FC4F8081992787FD909508958FEF9FEF84
:100E1000089520912204309123042817390771F492
:100E20008091E1032091E00390E0805C9F4F821B62
:100E3000910960E470E00E946B1C089580E090E0EE
:100E4000089520912204309123042817390739F49A
:100E50008FB7F8941092E1031092E0038FBF0895CA
:100E6000E0912204F0912304E817F90769F4A389BB
:100E7000B4899C918589809589238C931092230451
:100E80001092220481E0089580E00895CF93DF93CB
:100E9000EC018A8D9B8D892BF1F080912204909139
:100EA00023048C179D07B9F0009711F00E943007BA
:100EB0008E8D8E7F8E8F1092E1031092E003D0937F
:100EC0002304C0932204EB89FC8980819D89892BAE
:100ED000808381E001C080E0DF91CF9108951F926F
:100EE0000F920FB60F9211242F933F934F935F935E
:100EF0006F937F938F939F93AF93BF93EF93FF93E2
:100F0000E0912204F0912304309709F451C0868DBA
:100F1000A685B785958581FF04C08C91892329F426
:100F200047C08C91892309F043C0A389B4899C915F
:100F30008589809589238C93868997890197F1F714
:100F4000208D318DA685B785758558E040E0C901B3
:100F50000197F1F7842F90E095958795482F6C9134
:100F6000672309F04068515091F7868D81FD4095C7
:100F70008091E10390E001968F7399272091E0031F
:100F8000281749F0A091E103B0E0AE51BC4F4C935B
:100F90008093E10303C0868D8160868F828D938D5F
:100FA0000197F1F7A389B4898C919589892B8C934A
:100FB000FF91EF91BF91AF919F918F917F916F9131
:100FC0005F914F913F912F910F900FBE0F901F9007
:100FD000189528EA31E0FC01318320830C94300716
:100FE0001F93CF93DF93EC01162F6E8D6695617082
:100FF00081E06827812F0E943B1761E0812F0E94CA
:101000000217812F90E0FC01E151FC4FE491E88B45
:10101000FC01ED5FFB4FE491F0E0EE0FFF1FEF5D91
:10102000FB4F859194919A8B898BDF91CF911F9182
:1010300008951F93CF93DF93EC01162F60E0812F6B
:101040000E9402178E8D81FD04C061E0812F0E94F5
:101050003B171C87812F90E0FC01E151FC4FE4918C
:10106000ED87FC01ED5FFB4FE491F0E0EE0FFF1F19
:10107000E95EFB4F859194919F878E87DF91CF9199
:101080001F910895FF920F931F93CF93DF93EC016D
:10109000F62E522F1B821A8208EE13E020E030E079
:1010A0000C831D832E833F8388EA91E09983888394
:1010B0001F8A1E8A198E188E1B8E1A8E1D8E1C8EEC
:1010C0008E8D8E7F50FB81F98E8F642FCE010E9412
:1010D000F0076F2DCE01DF91CF911F910F91FF90FF
:1010E0000C941908CF93DF93EC019A01AB011B8E8E
:1010F0001A8E198E188E1F8A1E8A60E079E08DE3A1
:1011000090E00E94A11CC9012430310520F0B901F2
:101110006350710902C061E070E07D8F6C8FEC85D7
:10112000E63108F068C0B9017695679564317105BC
:1011300018F06351710902C061E070E07F8B6E8B23
:10114000069718F0C901059702C081E090E0998FD9
:10115000888FC901880F991F820F931F96958795D5
:10116000969587958D30910510F00C9702C081E01F
:1011700090E09B8F8A8F20916800E83050F091E0DA
:10118000EE3008F490E081E001C0880F9A95EAF70C
:1011900001C084E0822B809368002C85283038F0D1
:1011A0002E3040F0263148F48CE690E008C08DE601
:1011B00090E005C08BE690E002C080E090E09C8B60
:1011C0008B8B283030F481E001C0880F2A95EAF734
:1011D0000DC0822F90E02E3010F4089701C00E97BA
:1011E00091E001C0990F8A95EAF7892F8D8B8C8D3C
:1011F0009D8D0197F1F7CE01DF91CF910C944607B9
:101200000C943007FC01EB57FF4F11821082389687
:1012100011821082329611821082F8971182108208
:101220003597108231961082FC0115AEE059FF4FC0
:10123000118210823296118210823B9611821082A6
:10124000BF971082118212821382BB961082118284
:101250001282138233971082319610820895CF92B2
:10126000DF92EF92FF920F931F93CF93DF93EC01E6
:10127000842F6901798768874E835F8361E00E94CC
:10128000021761E088850E94021760E070E088859F
:101290000E947A1660E08E810E943B178AE997E9E6
:1012A000ADE4B6E48A879B87AC87BD87FE01E35730
:1012B000FE4FF182E082B601882777FD8095982F56
:1012C0000E94681B20E030E040E85FE40E94F41BCD
:1012D0002AE937E94DE456E40E94D21A0E943A1BEB
:1012E0006F8B788F898F9A8FB801882777FD8095CB
:1012F000982F0E94681B20E030E040E85FE40E94E5
:10130000F41B2AE937E94DE456E40E94D21A0E9400
:101310003A1B6B8F7C8F8D8F9E8FDF91CF911F91AA
:101320000F91FF90EF90DF90CF900895CF93DF93D0
:10133000EC01FC01EE58FF4F1182108280819181F7
:1013400086179707DCF38E810E94711761E068278A
:101350008E81DF91CF910C943B170F931F93CF9306
:10136000DF93EC010F85188929893A894B895C89BB
:101370006D897E89400F511F621F731F4F87588BE5
:10138000698B7A8B4F85588969897A8987E1769547
:101390006795579547958A95D1F7FE01E059FF4F1C
:1013A000518340830190F081E02DE552FE4FE4919E
:1013B0006E2F70E088850E947A16CE58DF4F8881A4
:1013C0009981019699838883DF91CF911F910F9125
:1013D0000895FC01DC01A058BF4F1C92868591E066
:1013E00089278687811105C0438D548D658D768D43
:1013F00004C04789508D618D728D438B548B658BF2
:10140000768B0895FC01ED57FF4F8081918168270D
:10141000792771836083CB019695879560FF04C01F
:1014200028E0822724E892279183808308959F9261
:10143000AF92BF92CF92DF92EF92FF920F931F93E2
:10144000CF93DF93EC01A62E38E0B32E8C010F571B
:101450001F4F6C0182E8C80ED11C7E01E0E8EE0E41
:10146000F11CFA2DF1709F2EF8018081811109C0C5
:10147000F6018081811105C0692D70E0CE010E94C6
:10148000020A992079F0F70180818F5F808385308F
:1014900061F4F8018081811108C06BE070E0CE0139
:1014A0000E949609CE010E94E909A6946BE070E0C3
:1014B000CE010E949609BA94A1F6DF91CF911F91B7
:1014C0000F91FF90EF90DF90CF90BF90AF909F90E3
:1014D00008956F927F928F929F92AF92BF92CF9218
:1014E000DF92EF92FF920F931F93CF93DF93EC0164
:1014F000962E772E842E7C0183E8E80EF11C8FEF68
:101500009FEFF70191838083339710823C9786E0A9
:1015100090E091838083BB24B394BE860B8D1C8D99
:101520002D8D3E8D0B8B1C8B2D8B3E8B6BE070E0DD
:10153000CE010E9496096E01F1E8CF0ED11CF60192
:10154000B0825E01F2E8AF0EB11CF501108218EC1A
:101550006EE7CE010E94170A1150D1F7F6011082F2
:10156000692C092D172D802F8619881538F4F8015C
:1015700061918F01CE010E94170AF5CF11E0F501AC
:101580001083F70160816095CE010E94170AF70170
:101590006181608311826095CE010E94170AF50176
:1015A0001082F601108314E66EE7CE010E94170A3E
:1015B0001150D1F7DF91CF911F910F91FF90EF90D4
:1015C000DF90CF90BF90AF909F908F907F906F9063
:1015D0000895FC01EA58FF4F8081853060F4643241
:1015E00011F48F5F808363E570E081E896E00E94EC
:1015F000520280E0089581E00895FC01E35BFF4F13
:1016000021E02083F896118210823A96118210828E
:10161000F89711821082F69611821082FC0115AEA5
:10162000E358FF4F118210823497DC01A25BBF4F59
:101630004D915D916D917C91408351836283738361
:10164000339710820895FF920F931F93CF93DF93E8
:10165000EB01FF24F39488818D3211F0F12C01C04D
:101660002196CE010E94FE1C9B01AC01A4E6B0E0D5
:101670000E94C61CFE014991242F332727FD309577
:10168000205331092A303105A8F34E3241F521812A
:10169000332727FD3095205331092A303105F8F4DE
:1016A0004AE0429F8001439F100D1124222717FD1D
:1016B0002095322F600F711F821F931F0281112707
:1016C00007FD1095005311090A30110540F4222737
:1016D00017FD2095322F600F711F821F931FFF206F
:1016E00039F090958095709561957F4F8F4F9F4F02
:1016F000DF91CF911F910F91FF9008956F927F928C
:101700008F929F92AF92BF92CF92DF92EF92FF9211
:101710000F931F93CF93DF93EC01162FFC01ED5A2B
:10172000FF4F8081882321F081E896E00E94F7191D
:10173000612FCE010E94E90A882309F44CC29E0160
:101740002B573F4F79011A3209F4C4C11C3261F1A1
:10175000143209F0C7C1D9018D919C911197892B41
:1017600009F039C281E090E08D939C93FE01E3572C
:10177000FF4F11821082CE5ADF4F8881882309F4EF
:101780002AC264E281E896E0DF91CF911F910F9128
:10179000FF90EF90DF90CF90BF90AF909F908F9091
:1017A0007F906F900C94F719F901808191818E01DF
:1017B00003571F4F019769F5D8018D919C9111979F
:1017C0009C012F5F3F4F2D933C938C0F9D1FFC017D
:1017D000E957FF4F108264EB71E0CE0189579F4FAC
:1017E0000E94251D892B91F4FE01EE5AFF4F808146
:1017F000882331F061ED71E081E896E00E94021AE1
:1018000082E090E0F7019183808303C0D7011D92AD
:101810001C92F701808191819E0121573F4F7901F0
:10182000029709F04DC1D9018D919C9184309105A9
:1018300009F4DBC06CF481309105B1F0029709F036
:101840003FC1D801ED91FC91EC0FFD1F16A238C1EC
:101850008730910509F4F5C08930910509F400C17C
:10186000069709F02DC1C8C0D801ED91FC91EC0F8D
:10187000FD1F178E8DAD882309F422C16E01B9E4D6
:10188000CB0ED11C9CA190538BA1880F8056282F82
:10189000220F220F280F920FF60190835E01FAE4C7
:1018A000AF0EB11C9AA1905389A1880F8056282FA2
:1018B000220F220F280F920FD5019C934E01BFE1FA
:1018C0008B0E911CB401CE010E94230BFE01E25B42
:1018D000FF4F60837183828393833E01EDE76E0E39
:1018E000711CFE01E758FF4F20813181AB01421B83
:1018F000530BD3014D935C93B7978081882359F0A4
:101900006AEC71E081E896E00E94D219B40181E8A6
:1019100096E00E94141A80917804811112C0F3019C
:101920008081918164E670E00E94571CFE01E55BB6
:10193000FF4F808191816817790718F0CE010E94CE
:10194000FD0A80917804813009F0BAC04E01F5E5B6
:101950008F0E911CD4018C918E3489F4F601208174
:10196000FE01EA5AFF4F8081821748F490E0049606
:1019700030E0821793071CF0CE010E94FD0AD401CB
:101980008C918534A9F4F6012081FE01EA5AFF4FBB
:101990008081821768F490E0049630E08217930704
:1019A0003CF0D5018C9180FD03C0CE010E94FD0A60
:1019B000F40180818F3409F083C0D6012C91FE019F
:1019C000EA5AFF4F8081821708F07AC090E00496AF
:1019D00030E0821793070CF473C0F501808180FF1B
:1019E0006FC0CE010E94FD0A6BC0D801ED91FC9141
:1019F000EC0FFD1F11AA64C08DAD882329F061E0B2
:101A00008E810E943B175CC08E810E94711761E03D
:101A100068278E810E943B17FE01EE5AFF4F80819E
:101A2000882309F44DC061EC71E081E896E00E94E2
:101A3000D219BE01625C7F4F81E896E00E94141AC1
:101A40003FC0D801ED91FC91EC0FFD1F16AECE0109
:101A5000CE960E94E01CC95ADF4F9983888330C01C
:101A6000F801808191818C0F9D1FFC01EF5BFF4F7E
:101A70001082CE018F5B9F4F0E94FE1C9B01AC0128
:101A8000FE01E75AFF4F6083718382839383A8E44A
:101A9000B1E00E94C61C24E630E040E050E00E9425
:101AA000A11CCA01B901FE01E35AFF4F2083318313
:101AB00042835383AE014F595F4F2AE00E942E1D8F
:101AC000D8011D921C92F70180819181019691832A
:101AD000808381C0D9011D921C92C157DF4F1982AA
:101AE000188279C0F901808191818130910579F462
:101AF000FE01E357FF4F808191819C012F5F3F4F93
:101B000031832083C80FD91FC957DF4F63C00297A5
:101B100009F061C0FE01E157FF4F0190F081E02D17
:101B20003197E930F10508F056C0EC5CFF4F0C949A
:101B3000C01CFE01E357FF4F8081918186309105E3
:101B40000CF049C09C012F5F3F4F31832083C80FA9
:101B5000D91F1F8F40C0FE01E357FF4F8081918145
:101B60009C012F5F3F4F31832083C80FD91F1EA3D5
:101B700032C018AB30C0FE01E357FF4F8081918126
:101B80009C012F5F3F4F31832083C80FD91F19ABB2
:101B900022C01CAF20C010531DAF1DC0FE01E35773
:101BA000FF4F808191819C012F5F3F4F31832083C4
:101BB000C80FD91F1EAF0FC0FE01E357FF4F808132
:101BC00091819C012F5F3F4F31832083C80FD91F24
:101BD000CF5BDF4F1883DF91CF911F910F91FF9063
:101BE000EF90DF90CF90BF90AF909F908F907F90BD
:101BF0006F90089584E294E00C9402098F929F9272
:101C0000AF92BF92CF92DF92EF92FF920F931F930A
:101C1000CF93DF93EC018C0106581E4FD8011C9224
:101C20007C01B4E8EB1ABEEFFB0AF70110826C01ED
:101C3000F7E8CF1AFEEFDF0A42E0942E882483945F
:101C40005C0183E7A81A8EEFB80AD8018C9190E066
:101C5000F601208130E022503109821793070CF001
:101C600083C0D7012C91213089F118F02230E1F0A6
:101C70003DC060EC70E081E896E00E94520260E0B6
:101C800070E081E896E00E945202F8018081FE0136
:101C9000E80FF11DE055FF4F608181E896E00E945A
:101CA0001818D7018C924CC08C0F9D1FFC01E05579
:101CB000FF4F8081803F09F068C060EF81E896E0C7
:101CC0000E94181883E0F70180833AC0FE01E80FF4
:101CD000F91FE055FF4F2081233041F463E081E894
:101CE00096E00E941818D7019C922AC08C0F9D1F65
:101CF000FC01E055FF4F8081803C31F46BED70E0DA
:101D000081E896E00E945202F8018081FE01E80F0E
:101D1000F11DE055FF4F608181E896E00E941818A0
:101D2000D8018C91FE01E80FF11DE055FF4F808135
:101D30008B3D31F46DED70E081E896E00E94520237
:101D4000F801808190E0FE01E80FF91FE055FF4F98
:101D50002081D501ED91FC91E80FF91F2083F80156
:101D600080818F5F808371CF60EC70E081E896E0C6
:101D70000E945202FE01E958FF4F81E08083C8585B
:101D8000DF4FD6018C9182508883DF91CF911F91D4
:101D90000F91FF90EF90DF90CF90BF90AF909F900A
:101DA0008F9008952F923F924F925F926F927F9201
:101DB0008F929F92AF92BF92CF92DF92EF92FF925B
:101DC0000F931F93CF93DF93CDB7DEB72B970FB64B
:101DD000F894DEBF0FBECDBF9B878A87DC011696C5
:101DE0008C910E94711761E06827EA85FB858681E6
:101DF0000E943B1760917900EA85FB85EC55FF4F07
:101E000060830A851B850E551F4FD8018D919C91CB
:101E10001197860F911D8D939C93AA85BB85A3581E
:101E2000BE4F4C914F5F4C932A853B8522583E4FC5
:101E3000403851F4880F892F881F990BF90180834E
:101E40001C92D8011D921C92F9018081681BEA85C1
:101E5000FB85EF56FF4F6083EA85FB85E155FF4F19
:101E600080818F5F873011F0808301C010822081D4
:101E70008A859B85820F911D820F911DDC01AE56D4
:101E8000BF4F4A855B8540565F4FFA018081918143
:101E90002D913C911197821B930B2A853B852857E6
:101EA0003E4FF90120816202900111242D933C9351
:101EB000820F931FDA018D939C93843691053CF039
:101EC00081E0EA85FB85E955FF4F808308C08D39A5
:101ED0009F4F2CF4EA85FB85E955FF4F10828A85D8
:101EE0009B858B559F4FFC0120812F5F293C10F46F
:101EF000208302C028EC2083CA84DB84BEE7CB1A8F
:101F0000BEEFDB0AF6011082EA85FB85E658FE4F3C
:101F100025E020837081772381F02A853B85270F78
:101F2000311DA9014E575E4FDA014C912D573E4F9E
:101F3000D9014C9371507083EDCFAA85BB85AD5705
:101F4000BE4F6C93EA84FB84BAEAEB0EF11CF701F6
:101F50002081222309F46FC00A851B850F571E4F6D
:101F6000D8014C916FEF640F6C932A853B852955FE
:101F70003F4FF90150812A853B8528553F4FD901B4
:101F80007C915717D1F15C93FC01108288EF840F8C
:101F9000823020F44250D8014C932FC0623018F4A4
:101FA000F80140832AC04A50423038F58A859B8523
:101FB00080589E4FDC012C912F5F2C932630E8F047
:101FC0001C92EA85FB85E758FE4F1082F7011082CC
:101FD000EA85FB85E757FE4F108211821282138239
:101FE000EA85FB85E455FF4F1082D8011C92EA85F3
:101FF000FB85E555FF4F1082A4C1F8018081811156
:1020000067C08BE08083EA85FB85E555FF4F208123
:1020100081E0820F80838A859B8587559F4FDC01F5
:102020003C91531709F454C02E5FD6012C931082B3
:10203000FC0150834DC0DC015C91AA85BB85AA558B
:10204000BF4F5C934C914B3018F04B504C93FACFF0
:10205000EA85FB85E555FF4F10822A853B8525588B
:102060003E4F5B5FD9015C93D9015C915C3038F0E5
:102070005B50D9015C9350815F5F5083F5CF2A8517
:102080003B8529553F4FD9015C912A853B852855D1
:102090003F4FD9016C91561709F453C15C93DC0191
:1020A0001C924450443080F48A859B8587579E4F0C
:1020B000DC011D921D921D921C9213978A859B85AF
:1020C00084559F4FDC011C9280818F5FF6018083D5
:1020D000D6018C91882309F434C181508C9390E00F
:1020E00001970A851B8504551F4F8730910508F01D
:1020F00075C0835C9F4FFC010C94C01C81E090E094
:1021000002C083E090E0D8010C9002C0880F991FB4
:102110000A94E2F7AA2797FDA095BA2F2A853B8556
:1021200027573E4FF9014081518162817381842B91
:10213000952BA62BB72B80839183A283B38362C098
:1021400087E090E0E0CF8FE090E0DDCF8FE190E09E
:10215000D8010C9002C0880F991F0A94E2F7AA27B1
:1021600097FDA095BA2F2A853B8527573E4FF90149
:102170004081518162817381842B952BA62BB72BD3
:1021800080839183A283B38385E0D6018C933AC088
:10219000F80180812A853B8527573E4F843058F4CB
:1021A0008EE790E0A0E0B0E0F90180839183A28304
:1021B000B38388E00EC0F90180819181A281B3814F
:1021C0009927AA27BB279E6780839183A283B38325
:1021D00080E1D8018C93F601108214C0AA85BB85DA
:1021E000A758BE4F1C92D7011C92AA85BB85A75742
:1021F000BE4F1D921D921D921C921397F8011082E2
:10220000D6011C92F6018081D8019C91890F8C9394
:10221000AA84BB84B7E7AB1ABEEFBB0AEA85FB858D
:10222000E255FF4FFA83E9838A859B8583559F4F4B
:102230002C0122242394CA84DB8497E8C91A9EEFD8
:10224000D90A58E0352E8A849B84A0E88A1AAEEF1A
:102250009A0A6A847B84BBEA6B0E711CEA85FB8553
:10226000E755FF4FFC83EB838A859B8589559F4FFC
:102270009E838D83AA85BB85AF57BE4FB887AF833A
:102280002FE0F8018081883008F45AC0F501808180
:10229000A981BA818C938E3731F5F7018081811144
:1022A0000FC02082AD81BE818C91EB81FC81808347
:1022B000D4011C92EF81F8852083D3011C9223C0A6
:1022C000D6018C918A30F8F08A859B8529870E94F7
:1022D000FE0DD6011C92F4011082D3011C92F20172
:1022E0003082298515C0D7019C91913079F4F6018F
:1022F0009081EA85FB85E90FF11DE055FF4F808352
:102300009F5FD6019C93F201308202C0D2012C92D1
:10231000F2013081F50180819181A281B381032E88
:1023200004C0B695A795979587950A94D2F78083B0
:102330009183A283B383D8018C91831B8C93A1CF0B
:1023400078942B960FB6F894DEBF0FBECDBFDF9109
:10235000CF911F910F91FF90EF90DF90CF90BF90A2
:10236000AF909F908F907F906F905F904F903F9035
:102370002F9008951F920F920FB60F9211242F9352
:102380003F934F935F936F937F938F939F93AF93FD
:10239000BF93EF93FF93E091B305F091B4050995D6
:1023A000FF91EF91BF91AF919F918F917F916F912D
:1023B0005F914F913F912F910F900FBE0F901F9003
:1023C00018958091E80590E02091E905821B91091C
:1023D00008952091E9058091E805281750F4E22F2F
:1023E000F0E0E651FA4F808190E02F5F2093E905FD
:1023F00008958FEF9FEF0895E091E9058091E8053A
:10240000E81730F4F0E0E651FA4F808190E008954B
:102410008FEF9FEF08950895CF92DF92EF92FF9292
:102420000F931F93CF93DF937C01CB018A012091FF
:10243000C405222389F0EB016B01C40ED51ECC1517
:10244000DD0569F06991D701ED91FC910190F08172
:10245000E02DC7010995F3CF642F0E941713C8011F
:10246000DF91CF911F910F91FF90EF90DF90CF9070
:102470000895CF93DF931F92CDB7DEB76983209184
:10248000C4052223D1F02091C505203240F021E07F
:1024900030E0FC013383228380E090E015C080911E
:1024A000C605E82FF0E0E953FA4F998190838F5FDA
:1024B0008093C6058093C50505C061E0CE010196F5
:1024C0000E94171381E090E00F90DF91CF91089563
:1024D000FC011382128248EE53E060E070E0448316
:1024E0005583668377838EEB91E091838083089593
:1024F0001092E9051092E8051092C6051092C505E4
:102500000C94A61281E08093C4056093E7051092B5
:10251000C6051092C50508950F93062F21E040913E
:10252000C50567EC75E08091E7050E94C412109222
:10253000C6051092C5051092C4050F91089561E07B
:102540000C948C1288EB95E00C946812109277062C
:1025500081E0809375061092740661E082E10E942A
:102560003B1761E083E10E943B17E9EBF0E08081DB
:102570008E7F808380818D7F808388E48093B80004
:1025800085E48093BC0008950F93413208F046C063
:10259000909177069111FCCF92E09093770600938B
:1025A00075069FEF90930A0610924F0640934E06D1
:1025B000FB0160E576E0DB019A2F961B941718F477
:1025C00091919D93F9CF1092760690917606880F9F
:1025D000892B8093760680917406813041F41092A5
:1025E0007406809176068093BB0085EC01C085EE71
:1025F0008093BC00222321F0809177068230E1F3A2
:1026000080910A068F3F61F080910A06803251F076
:1026100080910A06803341F483E007C081E005C061
:1026200080E003C082E001C084E00F910895613230
:1026300098F420917706243089F460932C06FC01ED
:102640008EE296E0DC012A2F281B261718F4219130
:102650002D93F9CF80E0089581E0089582E00895F8
:1026600085ED8093BC008091BC0084FDFCCF10926E
:102670007706089585EC8093BC0010927706089544
:102680001F920F920FB60F9211242F933F934F93E7
:102690005F936F937F938F939F93AF93BF93EF93CA
:1026A000FF938091B900887F803609F49CC068F55B
:1026B000883209F45BC090F4803109F454C038F4D6
:1026C000882309F4F5C0883009F44DC0F5C088317D
:1026D00009F44CC0803209F45DC0EEC0803409F4C6
:1026E00068C048F4803309F455C0883309F0E4C069
:1026F00080930A06A8C0803509F44FC0883509F4D4
:102700005DC0883409F0D8C0D5C0883909F4C6C086
:10271000A8F4883709F467C038F4883609F463C030
:10272000803709F460C0C8C0883809F4B7C0803960
:1027300009F45FC0803809F0BFC05BC0803B09F47A
:1027400085C038F4803A09F466C0883A09F47EC03E
:10275000B3C0803C09F4A6C0883C09F4A3C0883B00
:1027600009F489C0A9C08091760610C090914F06E7
:1027700080914E06981770F5E0914F0681E08E0F1C
:1027800080934F06F0E0E05BF94F80818093BB00BF
:1027900085EC85C080930A068DC0E0914F0681E0EC
:1027A0008E0F80934F068091BB00F0E0E05BF94F05
:1027B000808390914F0680914E066DC0E0914F0648
:1027C00081E08E0F80934F068091BB00F0E0E05BCC
:1027D000F94F80838091750681116CC081E08093F0
:1027E000740684EA60C083E08093770610920B063B
:1027F000CFCF80910B06803208F050C0E0910B06DD
:1028000081E08E0F80930B068091BB00F0E0E45FC7
:10281000F94F8083BDCF80910B06803230F4E09178
:102820000B06F0E0E45FF94F10820E9430136091D4
:102830000B0670E0E0917006F09171068CE096E076
:10284000099510920B060E943A1336C084E08093DB
:10285000770610922D0610922C06E0917206F091E8
:102860007306099580912C06811105C081E0809343
:102870002C0610922E06E0912D0681E08E0F80939B
:102880002D06F0E0E25DF94F80818093BB009091CE
:102890002D0680912C06981708F47ACF85E880934E
:1028A000BC000AC085EC8093BC001092770604C07F
:1028B00010920A060E943013FF91EF91BF91AF91E1
:1028C0009F918F917F916F915F914F913F912F9148
:1028D0000F900FBE0F901F9018950F93FC0113825D
:1028E00012828EEC91E091838083648340872187FC
:1028F000028788E083870F9108951F93CF93DF931A
:10290000EC01162F6C8188EB95E00E948212E09119
:10291000B805F091B9056B85612B0190F081E02D30
:1029200088EB95E0099588EB95E0DF91CF911F91B9
:102930000C949F12FC01138660E00C947D1428E037
:10294000FC01238760E00C947D141F93CF93DF93E9
:10295000EC01162F64600E947D1481E090E00E94DB
:102960003416612F6B7FCE010E947D1482E390E0CC
:10297000DF91CF911F910C9434161F93CF93DF9367
:10298000EC01162F0E947D14612FCE01DF91CF91B3
:102990001F910C94A514EF92FF921F93CF93DF9396
:1029A0001F92CDB7DEB77C01162F607F642B498361
:1029B0000E94BD1480E1189FB00111244981642B4D
:1029C000C7010F90DF91CF911F91FF90EF900C9472
:1029D000BD1440E00C94CB1461E00E94E91480ED3A
:1029E00097E00C94341662E00E94E91480ED97E0C1
:1029F0000C943416CF93DF93CDB7DEB728970FB67C
:102A0000F894DEBF0FBECDBF28E0E8E4F1E0DE01C0
:102A1000119601900D922A95E1F7FC01218524176A
:102A200010F44FEF420FFE013196E40FF11DE40F59
:102A3000F11D2081260F2068622F28960FB6F8948A
:102A4000DEBF0FBECDBFDF91CF910C94E914FC0126
:102A50006681262F246026836C600C94E91441E083
:102A60000E94CB1481E090E00895CF93DF93EC01B6
:102A700088EB95E00E9478121D828985823010F0E3
:102A800098E09D839A85992329F0813019F48D81EE
:102A900084608D8362E370E080E090E00E940C1619
:102AA0006B85CE010E947D1468EE73E080E090E0BB
:102AB0000E940C1660E3CE010E94BD1484E991E1EE
:102AC0000E94341660E3CE010E94BD1484E991E1B6
:102AD0000E94341660E3CE010E94BD1486E990E0A6
:102AE0000E94341660E2CE010E94BD146D816062C6
:102AF000CE010E94E91484E08E83CE010E94271546
:102B0000CE010E94EC1482E08F8366E0CE010E9429
:102B1000E914CE01DF91CF910C94F31461110C9460
:102B20009F140C949A141F920F920FB60F921124B7
:102B30002F933F938F939F93AF93BF938091790689
:102B400090917A06A0917B06B0917C063091780630
:102B500023E0230F2D3720F40196A11DB11D05C0E0
:102B600026E8230F0296A11DB11D209378068093BD
:102B7000790690937A06A0937B06B0937C068091A9
:102B80007D0690917E06A0917F06B0918006019609
:102B9000A11DB11D80937D0690937E06A0937F06B4
:102BA000B0938006BF91AF919F918F913F912F91EC
:102BB0000F900FBE0F901F9018952FB7F89460914B
:102BC000790670917A0680917B0690917C062FBFE2
:102BD00008953FB7F89480917D0690917E06A0916C
:102BE0007F06B091800626B5A89B05C02F3F19F03F
:102BF0000196A11DB11D3FBF6627782F892F9A2FFF
:102C0000620F711D811D911D42E0660F771F881FA5
:102C1000991F4A95D1F70895CF92DF92EF92FF92D4
:102C2000CF93DF936B017C010E94E915EB01C11486
:102C3000D104E104F10489F00E94D11A0E94E9153F
:102C40006C1B7D0B683E734090F381E0C81AD1087D
:102C5000E108F108C851DC4FEACFDF91CF91FF9036
:102C6000EF90DF90CF9008958230910538F0880F73
:102C7000991F880F991F05970197F1F70895789488
:102C800084B5826084BD84B5816084BD85B5826071
:102C900085BD85B5816085BDEEE6F0E0808181600F
:102CA0008083E1E8F0E0108280818260808380810F
:102CB00081608083E0E8F0E0808181608083E1EBE7
:102CC000F0E0808184608083E0EBF0E080818160CF
:102CD0008083EAE7F0E08081846080838081826085
:102CE000808380818160808380818068808310926E
:102CF000C10008951F93CF93DF93182FEB0161E07C
:102D00000E940217209711F460E004C0CF3FD10564
:102D100039F461E0812FDF91CF911F910C943B1723
:102D2000E12FF0E0E552FC4FE491E330F9F048F494
:102D3000E130B9F0E230A1F584B5806284BDC8BD50
:102D400034C0E730E9F0E83019F1E43049F580911A
:102D50008000806280938000D0938B00C0938A00B3
:102D600024C084B5806884BDC7BD1FC08091800029
:102D7000806880938000D0938900C093880015C03C
:102D80008091B00080688093B000C093B3000DC004
:102D90008091B00080628093B000C093B40005C001
:102DA000C038D1050CF0B5CFAFCFDF91CF911F91D7
:102DB0000895833081F028F4813099F08230A1F0B9
:102DC00008958730A9F08830B9F08430D1F480912B
:102DD00080008F7D03C0809180008F77809380007A
:102DE000089584B58F7702C084B58F7D84BD089522
:102DF0008091B0008F7703C08091B0008F7D809369
:102E0000B0000895CF93DF9390E0FC01E151FC4FB7
:102E10002491FC01ED5FFB4F8491882349F190E000
:102E2000880F991FFC01E55DFB4FA591B4918F5D63
:102E30009B4FFC01C591D4919FB7611108C0F894D4
:102E40008C91209582238C93888182230AC06230E2
:102E500051F4F8948C91322F309583238C93888190
:102E6000822B888304C0F8948C91822B8C939FBF13
:102E7000DF91CF9108950F931F93CF93DF931F920C
:102E8000CDB7DEB7282F30E0F901E552FC4F849131
:102E9000F901E151FC4F1491F901ED5FFB4F0491F1
:102EA0000023C9F0882321F069830E94D916698123
:102EB000E02FF0E0EE0FFF1FEF5DFB4FA591B49107
:102EC0009FB7F8948C91611103C01095812301C0C4
:102ED000812B8C939FBF0F90DF91CF911F910F910A
:102EE0000895CF93DF93282F30E0F901E552FC4F8E
:102EF0008491F901E151FC4FD491F901ED5FFB4F51
:102F0000C491CC2391F081110E94D916EC2FF0E0EE
:102F1000EE0FFF1FE95EFB4FA591B4912C912D237D
:102F200081E090E021F480E002C080E090E0DF9159
:102F3000CF910895FC01818D228D90E0805C9F4FA0
:102F4000821B91098F7399270895FC01918D828DC1
:102F5000981731F0828DE80FF11D858D90E008956E
:102F60008FEF9FEF0895FC01918D828D981761F08E
:102F7000828DDF01A80FB11D5D968C91928D9F5FB0
:102F80009F73928F90E008958FEF9FEF089587E3EE
:102F900099E1892B49F080E090E0892B29F00E948B
:102FA000371981110C9400000895FC01848DDF0114
:102FB000A80FB11DA35ABF4F2C91848D90E00196AC
:102FC0008F739927848FA689B7892C93A089B1899B
:102FD0008C9180648C93938D848D981306C00288A5
:102FE000F389E02D80818F7D80830895CF93DF93D7
:102FF000EC01888D8823C9F0EA89FB89808185FDF1
:1030000005C0A889B9898C9186FD0FC00FB607FC51
:10301000F5CF808185FFF2CFA889B9898C9185FF92
:10302000EDCFCE010E94D517E7CFDF91CF91089564
:10303000CF92DF92FF920F931F93CF93DF931F9254
:10304000CDB7DEB76C0181E0D60158968C935897C6
:103050005B969C915B975C968C915C97981307C0EC
:103060005096ED91FC915197808185FD2EC0F6011F
:10307000038D10E00F5F1F4F0F731127F02EF60125
:10308000848DF81211C00FB607FCF9CFD601509607
:10309000ED91FC915197808185FFF1CFC601698345
:1030A0000E94D5176981EBCF838DE80FF11DE35A9C
:1030B000FF4F6083D6015B960C935B975296ED9120
:1030C000FC915397808180620CC0D6015696ED9199
:1030D000FC91579760835096ED91FC9151978081B8
:1030E0008064808381E090E00F90DF91CF911F9109
:1030F0000F91FF90DF90CF900895BF92CF92DF9213
:10310000EF92FF92CF93DF93EC016A017B01B22E25
:10311000E889F98982E08083411581EE58076105CD
:103120007105A1F060E079E08DE390E0A7019601E0
:103130000E947F1C2150310941095109569547953C
:1031400037952795211580E1380798F0E889F989A6
:10315000108260E874E88EE190E0A70196010E9479
:103160007F1C2150310941095109569547953795E2
:103170002795EC85FD853083EE85FF852083188EAD
:10318000EC89FD89B082EA89FB8980818061808336
:10319000EA89FB89808188608083EA89FB89808154
:1031A00080688083EA89FB8980818F7D8083DF91BD
:1031B000CF91FF90EF90DF90CF90BF9008951F9236
:1031C0000F920FB60F9211242F938F939F93EF932B
:1031D000FF93E0919106F09192068081E09197062D
:1031E000F091980682FD12C0908180919A068F5FBF
:1031F0008F7320919B06821751F0E0919A06F0E0C0
:10320000EF57F94F958F80939A0601C08081FF9107
:10321000EF919F918F912F910F900FBE0F901F9064
:1032200018951F920F920FB60F9211242F933F9370
:103230004F935F936F937F938F939F93AF93BF93BE
:10324000EF93FF9381E896E00E94D517FF91EF91ED
:10325000BF91AF919F918F917F916F915F914F91AE
:103260003F912F910F900FBE0F901F90189581E8FE
:1032700096E00E949A1721E0892B09F420E0822F22
:103280000895109284061092830688EE93E0A0E0E1
:10329000B0E08093850690938606A0938706B0934E
:1032A000880686ED91E0909382068093810685ECF6
:1032B00090E090938E0680938D0684EC90E090933E
:1032C000900680938F0680EC90E090939206809316
:1032D000910681EC90E0909394068093930682ECA3
:1032E00090E0909396068093950686EC90E09093FC
:1032F00098068093970610929A0610929B06109259
:103300009C0610929D06089508950E943F160E9403
:1033100084190E94D105C7ECD7E10E9426042097AA
:10332000E1F30E94C717F9CFCF92DF92EF92FF929D
:103330000F931F93CF93DF936C017A01EB01E60E9D
:10334000F71E00E010E0CE15DF0561F06991D601AF
:10335000ED91FC910190F081E02DC6010995080FD7
:10336000191FF1CFC801DF91CF911F910F91FF90ED
:10337000EF90DF90CF9008956115710581F0DB012A
:103380000D900020E9F7AD0141505109461B570B44
:10339000DC01ED91FC910280F381E02D099480E045
:1033A00090E00895EF92FF920F931F93CF93DF93D6
:1033B0008C01FB01C0E0D0E064917F018FEFE81A3F
:1033C000F80A662361F0D801ED91FC910190F0813B
:1033D000E02DC8010995C80FD91FF701EDCFCE0127
:1033E000DF91CF911F910F91FF90EF900895DC0135
:1033F000ED91FC910190F081E02D099462EE71E075
:103400000C94BC190F931F93CF93DF93EC010E9490
:10341000D2198C01CE010E94FE19800F911FDF91FD
:10342000CF911F910F9108950F931F93CF93DF9327
:10343000EC010E94BC198C01CE010E94FE19800F84
:10344000911FDF91CF911F910F9108958F929F92BD
:10345000AF92BF92CF92DF92EF92FF920F931F93A2
:10346000CF93DF93CDB7DEB7A1970FB6F894DEBF49
:103470000FBECDBF7C01C42EE52FCB01D22E19A2E9
:1034800021E02D1510F02AE0D22E8E010F5D1F4F86
:103490008D2C912CA12CB12C6C2D7E2FA50194018B
:1034A0000E947F1C8C2DD29E80191124015011097D
:1034B0008A3014F4805D01C0895CF8018083211595
:1034C00031054105510521F0C22EE32FCA01E4CF99
:1034D000B801C7010E94BC19A1960FB6F894DEBFCF
:1034E0000FBECDBFDF91CF911F910F91FF90EF9055
:1034F000DF90CF90BF90AF909F908F900895CF9224
:10350000DF92EF92FF920F931F93CF93DF93EC0123
:103510006A017B012115310579F4E881F981019077
:10352000F081E02D642FDF91CF911F910F91FF90DB
:10353000EF90DF90CF9009942A303105E9F477FFBE
:103540001AC06DE20E94F7198C0144275527BA0171
:103550004C195D096E097F092AE0CE010E94261AE6
:10356000800F911FDF91CF911F910F91FF90EF90EE
:10357000DF90CF9008952AE0B701A601CE01DF9138
:10358000CF911F910F91FF90EF90DF90CF900C940F
:10359000261A9A01AB01662757FD6095762F0C9489
:1035A0007F1A08950CD0E6C0DED040F0D5D030F0C0
:1035B00021F45F3F19F0C7C0511110C1CAC0EBD050
:1035C00098F39923C9F35523B1F3951B550BBB27EA
:1035D000AA2762177307840738F09F5F5F4F220F97
:1035E000331F441FAA1FA9F333D00E2E3AF0E0E890
:1035F00030D091505040E695001CCAF729D0FE2FDC
:1036000027D0660F771F881FBB1F2617370748076D
:10361000AB07B0E809F0BB0B802DBF01FF27935823
:103620005F4F2AF09E3F510568F08DC0D7C05F3FC5
:10363000ECF3983EDCF3869577956795B795F7950B
:103640009F5FC9F7880F911D9695879597F9089503
:10365000E1E0660F771F881FBB1F6217730784079F
:10366000BA0720F0621B730B840BBA0BEE1F88F7AE
:10367000E095089598D088F09F5790F0B92F99273A
:10368000B751A0F0D1F0660F771F881F991F1AF06D
:10369000BA95C9F712C0B13081F09FD0B1E008955A
:1036A0009CC0672F782F8827B85F39F0B93FCCF3DB
:1036B000869577956795B395D9F73EF49095809563
:1036C000709561957F4F8F4F9F4F0895E89409C083
:1036D00097FB3EF490958095709561957F4F8F4F45
:1036E0009F4F9923A9F0F92F96E9BB279395F6955B
:1036F000879577956795B795F111F8CFFAF4BB0FD9
:1037000011F460FF1BC06F5F7F4F8F4F9F4F16C03C
:10371000882311F096E911C0772321F09EE8872FC6
:10372000762F05C0662371F096E8862F70E060E082
:103730002AF09A95660F771F881FDAF7880F9695FB
:10374000879597F9089597F99F6780E870E060E0A2
:1037500008959FEF80EC089500240A94161617062A
:1037600018060906089500240A9412161306140672
:1037700005060895092E0394000C11F4882352F0D5
:10378000BB0F40F4BF2B11F460FF04C06F5F7F4F8D
:103790008F4F9F4F089557FD9058440F551F59F074
:1037A0005F3F71F04795880F97FB991F61F09F3F2E
:1037B00079F087950895121613061406551FF2CF57
:1037C0004695F1DF08C0161617061806991FF1CFA7
:1037D00086957105610508940895E894BB276627CE
:1037E0007727CB0197F908950BD0C4CFB5DF28F028
:1037F000BADF18F0952309F0A6CFABCF1124EECF96
:10380000CADFA0F3959FD1F3950F50E0551F629F3B
:10381000F001729FBB27F00DB11D639FAA27F00D29
:10382000B11DAA1F649F6627B00DA11D661F829F50
:103830002227B00DA11D621F739FB00DA11D621F35
:10384000839FA00D611D221F749F3327A00D611D52
:10385000231F849F600D211D822F762F6A2F112434
:103860009F5750408AF0E1F088234AF0EE0FFF1F87
:10387000BB1F661F771F881F91505040A9F79E3FBE
:10388000510570F060CFAACF5F3FECF3983EDCF3B8
:10389000869577956795B795F795E7959F5FC1F7FB
:1038A000FE2B880F911D9695879597F90895AA1B71
:1038B000BB1B51E107C0AA1FBB1FA617B70710F01B
:1038C000A61BB70B881F991F5A95A9F7809590954D
:1038D000BC01CD01089597FB072E16F4009407D084
:1038E00077FD09D00E94571C07FC05D03EF4909547
:1038F00081959F4F0895709561957F4F0895A1E23E
:103900001A2EAA1BBB1BFD010DC0AA1FBB1FEE1F59
:10391000FF1FA217B307E407F50720F0A21BB30BA4
:10392000E40BF50B661F771F881F991F1A9469F720
:1039300060957095809590959B01AC01BD01CF017C
:103940000895052E97FB1EF400940E94B81C57FDA5
:1039500007D00E947F1C07FC03D04EF40C94B81CC7
:1039600050954095309521953F4F4F4F5F4F0895AB
:1039700090958095709561957F4F8F4F9F4F0895DB
:10398000EE0FFF1F0590F491E02D09940E94D11CC9
:10399000A59F900DB49F900DA49F800D911D1124A3
:1039A0000895A29FB001B39FC001A39F700D811D18
:1039B0001124911DB29F700D811D1124911D089538
:1039C000FC0188279927E89421912032E9F32930D6
:1039D00010F02E30C8F32B3241F02D3239F46894B8
:1039E00004C00E94521D820F911D219120532A3044
:1039F000C0F31EF4909581959F4F08951F93FC018D
:103A000099278827BC01E89411911032E9F3193005
:103A100010F01E30C8F31B3251F01D3249F4689487
:103A200006C00E943D1D610F711D811D911D1191E8
:103A300010531A30B0F33EF49095809570956195CF
:103A40007F4F8F4F9F4F1F910895FB01DC018D9198
:103A5000019080190110D9F3990B0895BB272A30E2
:103A600051F4992342F4BDE290958095709561954B
:103A70007F4F8F4F9F4F0C945B1D592F482F372F2F
:103A8000262F660F771F881F991F660F771F881FC5
:103A9000991F620F731F841F951F660F771F881F62
:103AA000991F08957AE0979F902D879F802D910D03
:103AB00011240895BB27FA01A62F6217710581050D
:103AC0009105330B30FB66F0AA27660F771F881F1E
:103AD000991FAA1FA21710F0A21B63953850A9F7CF
:103AE000A05DAA3308F0A95DA19336F7B111B19397
:103AF0001082CA010C947C1DDC01FC01672F7191BE
:103B00007723E1F7329704C07C916D9370836291C3
:103B1000AE17BF07C8F3089514E0CEE3D4E004C0A5
:103B2000FE010E94C21C2296C034D107C9F7F89446
:023B3000FFCFC5
:103B32008C688E9E9040608C688E9E904064AE929F
:103B4200888A624062AE92888A64406303F02F31B1
:103B5200353034353268343835312E32304E2F30EC
:103B6200303232302E3932452350484737313630E1
:103B7200342F20204469676900004000140054007B
:103B820041542B444D4F53455447524F55503D30AD
:103B92002C3134342E383030302C3134342E38300D
:103BA20030302C303030302C342C3030303000413A
:103BB200542B444D4F534554564F4C554D453D386B
:103BC2000041542B53455446494C5445523D302CE8
:103BD200302C3000000000009D06941909077C0675
:103BE200EF06210747504747410000000000391205
:103BF2000C12E111E911FC110B12000000002F154B
:103C0200941900000000181894199A17B317A517F1
:103C1200F6170D0A006E616E00696E66006F7666B9
:043C2200002E000070
:00000001FF
