:100000000C940A020C9432020C9432020C940707EE
:100010000C9407070C9407070C9432020C943202DC
:100020000C9432020C9432020C9432020C94320280
:100030000C9432020C94410E0C9432020C94320255
:100040000C941A120C9432020C9466150C949815A8
:100050000C9432020C9432020C9432020C94320250
:100060000C94C70F0C943202890D050D080D270D55
:100070002A0D2D0D4F0D53746F702047505320746F
:10008000657374004750532074657374696E672EEE
:100090002E2E7320746F2053746F700044524120D1
:1000A000757064617465206572726F7200445241AC
:1000B0002075706461746520646F6E65006572728E
:1000C0006F72006F6B2071756974002D2D2D2D2DB1
:1000D0002D2D2D2D2D2D00302051756974206D652D
:1000E0006E75003420546573742047505320286681
:1000F0006F72206C6174657220736F6674776172C1
:1001000065207570677261646529003320736574BA
:10011000204452412038313820746F206E6F726D48
:10012000616C2066696C746572003220736574209E
:100130004452412038313820746F20766F6C756DD1
:1001400065206D6178203800312073657420445239
:10015000412038313820746F203134342E3830301B
:1001600030204D687A00436F6E666967206D656E5A
:1001700075002D2D2D2D2D2D2D2D2D2D2D006D208E
:10018000666F7220626F6F74206D656E750020203F
:100190002020204634474F4820323031360020207E
:1001A0004150525320646967692076312E300080B7
:1001B0008183848687898A8C8D8F91929495979874
:1001C0009A9B9D9EA0A1A3A4A6A7A9AAACADAFB0DF
:1001D000B2B3B4B6B7B9BABBBDBEBFC1C2C3C5C660
:1001E000C7C9CACBCCCECFD0D1D2D4D5D6D7D8D907
:1001F000DADBDDDEDFE0E1E2E3E4E5E6E6E7E8E9DD
:10020000EAEBECECEDEEEFF0F0F1F2F2F3F4F4F5F2
:10021000F5F6F7F7F8F8F9F9F9FAFAFBFBFBFCFC4D
:10022000FCFDFDFDFDFEFEFEFEFEFEFEFEFEFEFFF3
:10023000FEFEFEFEFEFEFEFEFEFEFDFDFDFDFCFCE6
:10024000FCFBFBFBFAFAF9F9F9F8F8F7F7F6F5F524
:10025000F4F4F3F2F2F1F0F0EFEEEDECECEBEAE9AE
:10026000E8E7E6E6E5E4E3E2E1E0DFDEDDDBDAD97C
:10027000D8D7D6D5D4D2D1D0CFCECCCBCAC9C7C689
:10028000C5C3C2C1BFBEBDBBBAB9B7B6B4B3B2B0C5
:10029000AFADACAAA9A7A6A4A3A1A09E9D9B9A9826
:1002A00097959492918F8D8C8A8987868483817F9C
:1002B0007E7C7B797876757372706E6D6B6A686719
:1002C000656462615F5E5C5B595856555352504F8E
:1002D0004D4C4B49484645444241403E3D3C3A39ED
:1002E000383635343331302F2E2D2B2A2928272626
:1002F00025242221201F1E1D1C1B1A191918171630
:10030000151413131211100F0F0E0D0D0C0B0B0AF9
:100310000A0908080707060606050504040403037E
:1003200003020202020101010101010101010101B7
:1003300001010101010101010101020202020303A5
:1003400003040404050506060607070808090A0A47
:100350000B0B0C0D0D0E0F0F10111213131415169D
:10036000171819191A1B1C1D1E1F202122242526AF
:100370002728292A2B2D2E2F303133343536383982
:100380003A3C3D3E40414244454648494B4C4D4F26
:10039000505253555658595B5C5E5F6162646567A5
:1003A000686A6B6D6E707273757678797B7C7E008F
:1003B0000000080002010000030407000000000024
:1003C000000000010204081020408001020408100F
:1003D000200102040810200404040404040404029C
:1003E00002020202020303030303030000000023CE
:1003F000002600290000000000250028002B000036
:10040000000000240027002A0000CA02810A290FE8
:10041000C815E30211241FBECFEFD8E0DEBFCDBF69
:1004200011E0A0E0B1E0E4EBF2E302C005900D9230
:10043000AE3EB107D9F727E0AEEEB1E001C01D92A4
:10044000A831B207E1F714E0C2E1D4E004C022977A
:10045000FE010E944919CA30D107C9F70E940C1643
:100460000C944D190C9400008EE194E00C94590BFF
:100470008EE194E00C944509DC01ED91FC91019032
:10048000F081E02D09949091F00191110AC0803C17
:1004900049F581E08093F0011092F2011092F10190
:1004A0000895913031F481111DC082E08093F001F4
:1004B00008959230B9F4803C81F02091F10130919F
:1004C000F201A9014F5F5F4F5093F2014093F10198
:1004D000F901E554FD4F808308951092F00181E009
:1004E0008093EF01089580E090E00000000000009C
:1004F000000000000196843428E49207B1F70895C3
:10050000CF93C82F61E083E00E94C2130E94730260
:100510000E94730295B5987F916095BD28E332E003
:100520003093AE052093AD0581E080936F00C2301B
:1005300059F0C33071F0C13099F44091F1015091FC
:10054000F2016BEB72E008C04091960463EF71E03A
:1005500003C048E460E071E08EE194E00E94010A8B
:1005600060E083E00E94C21310926F0084E392E087
:100570009093AE058093AD0581E080936F0060E0BD
:1005800070E085E00E94011385B5887F836085BD9A
:10059000CF9108950F9320E046E067E08BEB93E066
:1005A0000E94DA0720E049E068E08CE993E00E94CD
:1005B000DA0700E024E044E167E280E993E00E948A
:1005C000F4100F9108958CE993E00E9481078BEB62
:1005D00093E00C948107CF92DF92EF92FF920F93FA
:1005E0001F93CF936EE771E08BE796E00E94891628
:1005F00061E080E10E94C2130E94641260938B0349
:1006000070938C0380938D0390938E03CFEF88EECD
:10061000C82E83E0D82EE12CF12C0E946412609346
:100620008703709388038093890390938A030091D2
:100630008B0310918C0320918D0330918E03DC018C
:10064000CB01801B910BA20BB30B80938303909380
:100650008403A0938503B09386038BE796E00E9402
:100660002114181619061CF16091830370918403FC
:100670008091850390918603A70196010E94281915
:100680008C2F992787FD9095A92FB92F2817390707
:100690004A075B07A9F0CF5F6C2F772767FD70953E
:1006A000605D7F4F8BE796E00E943C0209C08BE7BC
:1006B00096E00E943A148D369105B1F681E017C09C
:1006C0008091830390918403A0918503B091860368
:1006D00088389341A105B1050CF49FCF60E080E11B
:1006E0000E94C2138BE796E00E94851680E0CF91AE
:1006F0001F910F91FF90EF90DF90CF900895AF92F0
:10070000BF92CF92DF92EF92FF920F931F93CF93FE
:10071000DF93EC016B018091EE0180936E0080E924
:1007200093E00E9473115E0100E010E0F501619119
:100730005F0170E07595679580E993E00E94B611BE
:100740000F5F1F4F0630110589F76CE280E993E0D7
:100750000E94B61107E010E0FE01E00FF11F60817A
:1007600070E07595679580E993E00E94B6110F5F80
:100770001F4F0D30110581F76D85669570E0605350
:1007800071094AE050E080E993E00E9450176DE261
:1007900080E993E00E94B611FE0180E090E08C15A4
:1007A0009D0534F421910196203FC9F77C01F7CFD4
:1007B00041E060E080E993E00E948111EC0EFD1EB3
:1007C00000E010E0AA24A394B12CC7018C1B9D0B60
:1007D0008C159D05C4F4F70161917F0180E993E0D8
:1007E0000E94B6110F5F1F4F0431110571F7FFEF23
:1007F000AF1ABF0A4A2D60E080E993E00E948111A0
:1008000000E010E0E2CF10926E00DF91CF911F91D7
:100810000F91FF90EF90DF90CF90BF90AF90089531
:100820008BE796E00E9421141816190634F48BE722
:1008300096E00E943A140E9443028091EF018130B9
:1008400021F080919504813049F50E9473020E9445
:1008500073028BE796E00E947D148091EF01813056
:1008600069F46091F1017091F2018BEB92E00E94CA
:100870007F0381E00E9480021092EF018091950435
:10088000813061F46091960470E083EF91E00E9402
:100890007F0382E00E948002109295040895DF9207
:1008A000EF92FF920F931F93CF93DF93EC0140E8F9
:1008B00055E260E070E08BEB93E00E940A08BE0115
:1008C0008BEB93E00E949B160E94641260938B0353
:1008D00070938C0380938D0390938E03D12C8BEBBC
:1008E00093E00E94A106181619063CF48BEB93E0E6
:1008F0000E941406FE2CED2CD82E0E9464126093E8
:100900008703709388038093890390938A030091EF
:100910008B0310918C0320918D0330918E03AB01DA
:10092000BC01401B510B620B730B4093830350932C
:10093000840360938503709386038AE0D8120FC006
:10094000BE018BE796E00E949B168BEB93E00E9422
:10095000980880E3F8120AC06DEA70E009C0403DD3
:100960005740610571050CF4BACFEACF6CE970E02D
:100970008BE796E0DF91CF911F910F91FF90EF9061
:10098000DF900C948916CF9340E855E260E070E068
:100990008CE993E00E940A0864E870E08BE796E037
:1009A0000E948916C0E08BE796E00E942114892BF3
:1009B00029F08BE796E00E943A14C82F8CE993E067
:1009C0000E94A106892B71F08CE993E00E94140625
:1009D00080938F03682F772767FD70958BE796E0EC
:1009E0000E943C02C337F9F666E770E08BE796E0B9
:1009F0000E9489168BE796E00E943A148CE993E0F6
:100A0000CF910C949808CF9362E771E08BE796E062
:100A10000E94891666E671E08BE796E00E948916CF
:100A200068E471E08BE796E00E9489166AE271E063
:100A30008BE796E00E9489166BE071E08BE796E009
:100A40000E94891663EE70E08BE796E00E9489169B
:100A500067ED70E08BE796E00E9489166BEC70E022
:100A60008BE796E00E9489168BE796E00E9421149E
:100A700018161906CCF78BE796E00E943A14C82F97
:100A8000882391F3823379F03CF48033A1F08133F1
:100A9000C9F480E591E00CC0833341F0843391F4D4
:100AA0000E94C304B1CF8FE791E002C081E991E0D9
:100AB0000E944F04A9CF63EC70E08BE796E0CF91E2
:100AC0000C9489166DEB70E08BE796E00E94891616
:100AD000C03309F099CFCF910895EF92FF920F9311
:100AE0001F9326E040E855E260E070E08BE796E077
:100AF0000E94041580E993E00E94BC1161E080E946
:100B000093E00E94151280E993E00E9473116EE950
:100B100071E080E993E00E94591642E060E080E9CC
:100B200093E00E9481116EE871E080E993E00E94F9
:100B3000591661E082E00E94891361E085E00E941D
:100B4000891361E082E00E94C21361E083E00E94A9
:100B5000891360E083E00E94C2130E94EB0281309F
:100B600011F40E94030583E480937C0080917C0053
:100B7000806280937C0084E080937A0080917A0088
:100B8000806280937A0010927B0080917E00816069
:100B900080937E0080917A00806880937A008091B3
:100BA0007A00806480937A0043EFE42E41E0F42ED3
:100BB00008E918E020EB34E040E150E065E070E047
:100BC0008EE194E00E94C70880E18093810010923A
:100BD000800021E02093AF0580E692E09093B1057C
:100BE0008093B005909387008093860081E1809385
:100BF000810084E392E09093AE058093AD0520934D
:100C00006F0060ED77E080E090E00E9493128091A9
:100C10006E008093EE0110926E00109268001F919A
:100C20000F91FF90EF90089520911C0430911D04C6
:100C300028173907B9F49091DA038091DB039817EC
:100C400089F0E091DA03F0E0E452FC4F80812091DA
:100C5000DA0330E02F5F3F4F2F7333272093DA03FF
:100C600090E008958FEF9FEF08951F93CF93DF9348
:100C7000DC015C968D919C915D97009749F481E031
:100C800090E013969C938E93129780E090E03BC087
:100C90005196ED91FC91529750962C915097322F8E
:100CA00030951FB75E964C915E9741FB772770F9A0
:100CB00041FD6095F8944081772311F0422B01C0EB
:100CC00043234083EC012197F1F748E0508160FF16
:100CD00002C0522B01C053235083EC012197F1F73E
:100CE0006695415099F78081772311F0832301C0E5
:100CF000822B80831FBF5C968D919C915D9701979D
:100D0000F1F781E090E0DF91CF911F91089520915C
:100D10001C0430911D042817390781F49091DA03DF
:100D20008091DB03981751F0E091DA03F0E0E45290
:100D3000FC4F8081992787FD909508958FEF9FEF55
:100D4000089520911C0430911D042817390771F46F
:100D50008091DB032091DA0390E0805C9F4F821B3F
:100D6000910960E470E00E94F218089580E090E03C
:100D7000089520911C0430911D042817390739F477
:100D80008FB7F8941092DB031092DA038FBF0895A7
:100D9000E0911C04F0911D04E817F90769F4A38998
:100DA000B4899C918589809589238C9310921D0428
:100DB00010921C0481E0089580E00895CF93DF93A2
:100DC000EC018A8D9B8D892BF1F080911C04909110
:100DD0001D048C179D07B9F0009711F00E94C806FA
:100DE0008E8D8E7F8E8F1092DB031092DA03D0935C
:100DF0001D04C0931C04EB89FC8980819D89892B8B
:100E0000808381E001C080E0DF91CF9108951F923F
:100E10000F920FB60F9211242F933F934F935F932E
:100E20006F937F938F939F93AF93BF93EF93FF93B2
:100E3000E0911C04F0911D04309709F451C0868D97
:100E4000A685B785958581FF04C08C91892329F4F7
:100E500047C08C91892309F043C0A389B4899C9130
:100E60008589809589238C93868997890197F1F7E5
:100E7000208D318DA685B785758558E040E0C90184
:100E80000197F1F7842F90E095958795482F6C9105
:100E9000672309F04068515091F7868D81FD409598
:100EA0008091DB0390E001968F7399272091DA03FC
:100EB000281749F0A091DB03B0E0A452BC4F4C933B
:100EC0008093DB0303C0868D8160868F828D938D36
:100ED0000197F1F7A389B4898C919589892B8C931B
:100EE000FF91EF91BF91AF919F918F917F916F9102
:100EF0005F914F913F912F910F900FBE0F901F90D8
:100F0000189528EA31E0FC01318320830C94C8064F
:100F10001F93CF93DF93EC01162F6E8D6695617052
:100F200081E06827812F0E94C21361E0812F0E9417
:100F30008913812F90E0FC01ED53FC4FE491E88B85
:100F4000FC01E952FC4FE491F0E0EE0FFF1FEB5083
:100F5000FC4F859194919A8B898BDF91CF911F9152
:100F600008951F93CF93DF93EC01162F60E0812F3C
:100F70000E9489138E8D81FD04C061E0812F0E9443
:100F8000C2131C87812F90E0FC01ED53FC4FE491CC
:100F9000ED87FC01E952FC4FE491F0E0EE0FFF1FFA
:100FA000E551FC4F859194919F878E87DF91CF917A
:100FB0001F910895FF920F931F93CF93DF93EC013E
:100FC000F62E522F1B821A8208EE13E020E030E04A
:100FD0000C831D832E833F8388EA91E09983888365
:100FE0001F8A1E8A198E188E1B8E1A8E1D8E1C8EBD
:100FF0008E8D8E7F50FB81F98E8F642FCE010E94E3
:1010000088076F2DCE01DF91CF911F910F91FF9037
:101010000C94B107CF93DF93EC019A01AB011B8EC7
:101020001A8E198E188E1F8A1E8A60E079E08DE371
:1010300090E00E942819C9012430310520F0B9013F
:101040006350710902C061E070E07D8F6C8FEC85A8
:10105000E63108F068C0B90176956795643171058D
:1010600018F06351710902C061E070E07F8B6E8BF4
:10107000069718F0C901059702C081E090E0998FAA
:10108000888FC901880F991F820F931F96958795A6
:10109000969587958D30910510F00C9702C081E0F0
:1010A00090E09B8F8A8F20916800E83050F091E0AB
:1010B000EE3008F490E081E001C0880F9A95EAF7DD
:1010C00001C084E0822B809368002C85283038F0A2
:1010D0002E3040F0263148F48CE690E008C08DE6D2
:1010E00090E005C08BE690E002C080E090E09C8B31
:1010F0008B8B283030F481E001C0880F2A95EAF705
:101100000DC0822F90E02E3010F4089701C00E978A
:1011100091E001C0990F8A95EAF7892F8D8B8C8D0C
:101120009D8D0197F1F7CE01DF91CF910C94DE06F2
:101130000C94C806FC01EB57FF4F118210823896C1
:1011400011821082329611821082F89711821082D9
:101150003597108231961082FC0115AEE059FF4F91
:10116000118210823296118210823B961182108277
:10117000BF971082118212821382BB961082118255
:101180001282138233971082319610820895CF9283
:10119000DF92EF92FF920F931F93CF93DF93EC01B7
:1011A000842F6901798768874E835F8361E00E949D
:1011B000891361E088850E94891360E070E088856A
:1011C0000E94011360E08E810E94C2138AE997E9B0
:1011D000ADE4B6E48A879B87AC87BD87FE01E35701
:1011E000FE4FF182E082B601882777FD8095982F27
:1011F0000E94EF1720E030E040E85FE40E947B1897
:101200002AE937E94DE456E40E9459170E94C117B4
:101210006F8B788F898F9A8FB801882777FD80959B
:10122000982F0E94EF1720E030E040E85FE40E9432
:101230007B182AE937E94DE456E40E9459170E94C9
:10124000C1176B8F7C8F8D8F9E8FDF91CF911F91F8
:101250000F91FF90EF90DF90CF900895CF93DF93A1
:10126000EC01FC01EE58FF4F1182108280819181C8
:1012700086179707DCF38E810E94F81361E06827D8
:101280008E81DF91CF910C94C2130F931F93CF9354
:10129000DF93EC010F85188929893A894B895C898C
:1012A0006D897E89400F511F621F731F4F87588BB6
:1012B000698B7A8B4F85588969897A8987E1769518
:1012C0006795579547958A95D1F7FE01E059FF4FED
:1012D000518340830190F081E02DE155FE4FE49170
:1012E0006E2F70E088850E940113CE58DF4F8881F1
:1012F0009981019699838883DF91CF911F910F91F6
:101300000895FC01DC01A058BF4F1C92868591E036
:1013100089278687811105C0438D548D658D768D13
:1013200004C04789508D618D728D438B548B658BC2
:10133000768B0895FC01ED57FF4F808191816827DE
:10134000792771836083CB019695879560FF04C0F0
:1013500028E0822724E892279183808308959F9232
:10136000AF92BF92CF92DF92EF92FF920F931F93B3
:10137000CF93DF93EC01A62E38E0B32E8C010F57EC
:101380001F4F6C0182E8C80ED11C7E01E0E8EE0E12
:10139000F11CFA2DF1709F2EF8018081811109C096
:1013A000F6018081811105C0692D70E0CE010E9497
:1013B0009A09992079F0F70180818F5F80838530C9
:1013C00061F4F8018081811108C06BE070E0CE010A
:1013D0000E942E09CE010E948109A6946BE070E064
:1013E000CE010E942E09BA94A1F6DF91CF911F91F0
:1013F0000F91FF90EF90DF90CF90BF90AF909F90B4
:1014000008956F927F928F929F92AF92BF92CF92E8
:10141000DF92EF92FF920F931F93CF93DF93EC0134
:10142000962E772E842E7C0183E8E80EF11C8FEF38
:101430009FEFF70191838083339710823C9786E07A
:1014400090E091838083BB24B394BE860B8D1C8D6A
:101450002D8D3E8D0B8B1C8B2D8B3E8B6BE070E0AE
:10146000CE010E942E096E01F1E8CF0ED11CF601CB
:10147000B0825E01F2E8AF0EB11CF501108218ECEB
:101480006EE7CE010E94AF091150D1F7F60110822C
:10149000692C092D172D802F8619881538F4F8012D
:1014A00061918F01CE010E94AF09F5CF11E0F501E6
:1014B0001083F70160816095CE010E94AF09F701AA
:1014C0006181608311826095CE010E94AF09F501B0
:1014D0001082F601108314E66EE7CE010E94AF0978
:1014E0001150D1F7DF91CF911F910F91FF90EF90A5
:1014F000DF90CF90BF90AF909F908F907F906F9034
:1015000008958EE194E00C949A088F929F92AF9286
:10151000BF92CF92DF92EF92FF920F931F93CF93E0
:10152000DF93EC018C0106581E4FD8011C927C0100
:10153000B4E8EB1ABEEFFB0AF70110826C01F7E882
:10154000CF1AFEEFDF0A42E0942E882483945C01D8
:1015500083E7A81A8EEFB80AD8018C9190E0F601C3
:10156000208130E022503109821793070CF083C0AC
:10157000D7012C91213089F118F02230E1F03DC0E3
:1015800060EC70E08BE796E00E943C0260E070E067
:101590008BE796E00E943C02F8018081FE01E80F93
:1015A000F11DE055FF4F60818BE796E00E949F148C
:1015B000D7018C924CC08C0F9D1FFC01E055FF4F52
:1015C0008081803F09F068C060EF8BE796E00E9461
:1015D0009F1483E0F70180833AC0FE01E80FF91FF2
:1015E000E055FF4F2081233041F463E08BE796E024
:1015F0000E949F14D7019C922AC08C0F9D1FFC0152
:10160000E055FF4F8081803C31F46BED70E08BE75B
:1016100096E00E943C02F8018081FE01E80FF11D76
:10162000E055FF4F60818BE796E00E949F14D80140
:101630008C91FE01E80FF11DE055FF4F80818B3D3D
:1016400031F46DED70E08BE796E00E943C02F8010A
:10165000808190E0FE01E80FF91FE055FF4F2081E7
:10166000D501ED91FC91E80FF91F2083F8018081ED
:101670008F5F808371CF60EC70E08BE796E00E9413
:101680003C02FE01E958FF4F81E08083C858DF4FDC
:10169000D6018C9182508883DF91CF911F910F9159
:1016A000FF90EF90DF90CF90BF90AF909F908F9082
:1016B00008952F923F924F925F926F927F928F92F6
:1016C0009F92AF92BF92CF92DF92EF92FF920F93D1
:1016D0001F93CF93DF93CDB7DEB72B970FB6F89458
:1016E000DEBF0FBECDBF9B878A87DC0116968C912B
:1016F0000E94F81361E06827EA85FB8586810E94D5
:10170000C21360917900EA85FB85EC55FF4F608339
:101710000A851B850E551F4FD8018D919C911197FD
:10172000860F911D8D939C93AA85BB85A358BE4FB0
:101730004C914F5F4C932A853B8522583E4F403851
:1017400051F4880F892F881F990BF90180831C920F
:10175000D8011D921C92F9018081681BEA85FB85E6
:10176000EF56FF4F6083EA85FB85E155FF4F80818F
:101770008F5F873011F0808301C0108220818A85BD
:101780009B85820F911D820F911DDC01AE56BF4FCC
:101790004A855B8540565F4FFA01808191812D918A
:1017A0003C911197821B930B2A853B8528573E4F0E
:1017B000F90120816202900111242D933C93820F44
:1017C000931FDA018D939C93843691053CF081E060
:1017D000EA85FB85E955FF4F808308C08D399F4F0F
:1017E0002CF4EA85FB85E955FF4F10828A859B859D
:1017F0008B559F4FFC0120812F5F293C10F42083E3
:1018000002C028EC2083CA84DB84BEE7CB1ABEEF7B
:10181000DB0AF6011082EA85FB85E658FE4F25E0DB
:1018200020837081772381F02A853B85270F311D26
:10183000A9014E575E4FDA014C912D573E4FD90109
:101840004C9371507083EDCFAA85BB85AD57BE4FC9
:101850006C93EA84FB84BAEAEB0EF11CF701208159
:10186000222309F46FC00A851B850F571E4FD8012C
:101870004C916FEF640F6C932A853B8529553F4F40
:10188000F90150812A853B8528553F4FD9017C912C
:101890005717D1F15C93FC01108288EF840F8230DE
:1018A00020F44250D8014C932FC0623018F4F80154
:1018B00040832AC04A50423038F58A859B8580583B
:1018C0009E4FDC012C912F5F2C932630E8F01C9268
:1018D000EA85FB85E758FE4F1082F7011082EA8502
:1018E000FB85E757FE4F1082118212821382EA8530
:1018F000FB85E455FF4F1082D8011C92EA85FB85D9
:10190000E555FF4F1082A4C1F8018081811167C0A5
:101910008BE08083EA85FB85E555FF4F208181E0E0
:10192000820F80838A859B8587559F4FDC013C9180
:10193000531709F454C02E5FD6012C931082FC017A
:1019400050834DC0DC015C91AA85BB85AA55BF4F71
:101950005C934C914B3018F04B504C93FACFEA8586
:10196000FB85E555FF4F10822A853B8525583E4F64
:101970005B5FD9015C93D9015C915C3038F05B50BE
:10198000D9015C9350815F5F5083F5CF2A853B85F9
:1019900029553F4FD9015C912A853B8528553F4FFA
:1019A000D9016C91561709F453C15C93DC011C9268
:1019B0004450443080F48A859B8587579E4FDC01D4
:1019C0001D921D921D921C9213978A859B858455AA
:1019D0009F4FDC011C9280818F5FF6018083D601CE
:1019E0008C91882309F434C181508C9390E0019745
:1019F0000A851B8504551F4F8730910508F075C077
:101A00008C5C9F4FFC010C94471981E090E002C070
:101A100083E090E0D8010C9002C0880F991F0A94CF
:101A2000E2F7AA2797FDA095BA2F2A853B8527576D
:101A30003E4FF9014081518162817381842B952B46
:101A4000A62BB72B80839183A283B38362C087E0E8
:101A500090E0E0CF8FE090E0DDCF8FE190E0D80123
:101A60000C9002C0880F991F0A94E2F7AA2797FDED
:101A7000A095BA2F2A853B8527573E4FF901408113
:101A8000518162817381842B952BA62BB72B808388
:101A90009183A283B38385E0D6018C933AC0F80189
:101AA00080812A853B8527573E4F843058F48EE746
:101AB00090E0A0E0B0E0F90180839183A283B3833A
:101AC00088E00EC0F90180819181A281B3819927BC
:101AD000AA27BB279E6780839183A283B38380E17B
:101AE000D8018C93F601108214C0AA85BB85A75833
:101AF000BE4F1C92D7011C92AA85BB85A757BE4F2B
:101B00001D921D921D921C921397F8011082D6010E
:101B10001C92F6018081D8019C91890F8C93AA8434
:101B2000BB84B7E7AB1ABEEFBB0AEA85FB85E2557B
:101B3000FF4FFA83E9838A859B8583559F4F2C014C
:101B400022242394CA84DB8497E8C91A9EEFD90A19
:101B500058E0352E8A849B84A0E88A1AAEEF9A0A50
:101B60006A847B84BBEA6B0E711CEA85FB85E755B2
:101B7000FF4FFC83EB838A859B8589559F4F9E830E
:101B80008D83AA85BB85AF57BE4FB887AF832FE043
:101B9000F8018081883008F45AC0F5018081A9815C
:101BA000BA818C938E3731F5F701808181110FC096
:101BB0002082AD81BE818C91EB81FC818083D40138
:101BC0001C92EF81F8852083D3011C9223C0D6019B
:101BD0008C918A30F8F08A859B8529870E94850A36
:101BE000D6011C92F4011082D3011C92F2013082C2
:101BF000298515C0D7019C91913079F4F601908127
:101C0000EA85FB85E90FF11DE055FF4F80839F5F5B
:101C1000D6019C93F201308202C0D2012C92F201D3
:101C20003081F50180819181A281B381032E04C0AE
:101C3000B695A795979587950A94D2F78083918357
:101C4000A283B383D8018C91831B8C93A1CF78940A
:101C50002B960FB6F894DEBF0FBECDBFDF91CF91AC
:101C60001F910F91FF90EF90DF90CF90BF90AF90BA
:101C70009F908F907F906F905F904F903F902F90AC
:101C800008951F920F920FB60F9211242F933F9336
:101C90004F935F936F937F938F939F93AF93BF9374
:101CA000EF93FF93E091AD05F091AE050995FF919B
:101CB000EF91BF91AF919F918F917F916F915F91C4
:101CC0004F913F912F910F900FBE0F901F9018953D
:101CD0008091E20590E02091E305821B910908952F
:101CE0002091E3058091E205281750F4E22FF0E0FF
:101CF000EC51FA4F808190E02F5F2093E305089527
:101D00008FEF9FEF0895E091E3058091E205E817DA
:101D100030F4F0E0EC51FA4F808190E008958FEFBD
:101D20009FEF08950895CF92DF92EF92FF920F9365
:101D30001F93CF93DF937C01CB018A012091BE05D5
:101D4000222389F0EB016B01C40ED51ECC15DD05F5
:101D500069F06991D701ED91FC910190F081E02D3E
:101D6000C7010995F3CF642F0E949E0FC801DF9130
:101D7000CF911F910F91FF90EF90DF90CF9008953A
:101D8000CF93DF931F92CDB7DEB769832091BE0555
:101D90002223D1F02091BF05203240F021E030E035
:101DA000FC013383228380E090E015C08091C00560
:101DB000E82FF0E0EF53FA4F998190838F5F809383
:101DC000C0058093BF0505C061E0CE0101960E9469
:101DD0009E0F81E090E00F90DF91CF910895FC017C
:101DE0001382128248EE53E060E070E04483558332
:101DF0006683778388EB91E09183808308951092C6
:101E0000E3051092E2051092C0051092BF050C94F4
:101E10002D0F81E08093BE056093E1051092C0050F
:101E20001092BF0508950F93062F21E04091BF0542
:101E300061EC75E08091E1050E944B0F1092C005A6
:101E40001092BF051092BE050F91089561E00C94A9
:101E5000130F82EB95E00C94EF0E1092710681E067
:101E600080936F0610926E0661E082E10E94C213B9
:101E700061E083E10E94C213E9EBF0E080818E7F94
:101E8000808380818D7F808388E48093B80085E49F
:101E90008093BC0008950F93413208F046C09091A2
:101EA00071069111FCCF92E09093710600936F063A
:101EB0009FEF909304061092490640934806FB0159
:101EC0006AE476E0DB019A2F961B941718F491913F
:101ED0009D93F9CF1092700690917006880F892B10
:101EE0008093700680916E06813041F410926E06E8
:101EF000809170068093BB0085EC01C085EE8093D5
:101F0000BC00222321F0809171068230E1F38091A0
:101F100004068F3F61F080910406803251F0809179
:101F20000406803341F483E007C081E005C080E00F
:101F300003C082E001C084E00F910895613298F4FB
:101F400020917106243089F460932606FC0188E212
:101F500096E0DC012A2F281B261718F421912D93D7
:101F6000F9CF80E0089581E0089582E0089585ED3D
:101F70008093BC008091BC0084FDFCCF1092710660
:101F8000089585EC8093BC001092710608951F920D
:101F90000F920FB60F9211242F933F934F935F939D
:101FA0006F937F938F939F93AF93BF93EF93FF9321
:101FB0008091B900887F803609F49CC068F588322A
:101FC00009F45BC090F4803109F454C038F48823DC
:101FD00009F4F5C0883009F44DC0F5C0883109F422
:101FE0004CC0803209F45DC0EEC0803409F468C092
:101FF00048F4803309F455C0883309F0E4C0809375
:102000000406A8C0803509F44FC0883509F45DC0C6
:10201000883409F0D8C0D5C0883909F4C6C0A8F4FE
:10202000883709F467C038F4883609F463C080370C
:1020300009F460C0C8C0883809F4B7C0803909F411
:102040005FC0803809F0BFC05BC0803B09F485C029
:1020500038F4803A09F466C0883A09F47EC0B3C007
:10206000803C09F4A6C0883C09F4A3C0883B09F46D
:1020700089C0A9C08091700610C0909149068091D6
:102080004806981770F5E091490681E08E0F80931D
:102090004906F0E0E65BF94F80818093BB0085EC58
:1020A00085C0809304068DC0E091490681E08E0FC3
:1020B000809349068091BB00F0E0E65BF94F808396
:1020C00090914906809148066DC0E091490681E0F3
:1020D0008E0F809349068091BB00F0E0E65BF94FDC
:1020E000808380916F0681116CC081E080936E06C1
:1020F00084EA60C083E08093710610920506CFCF1A
:1021000080910506803208F050C0E091050681E01C
:102110008E0F809305068091BB00F0E0EA5FF94FD7
:102120008083BDCF80910506803230F4E0910506B2
:10213000F0E0EA5FF94F10820E94B70F6091050648
:1021400070E0E0916A06F0916B0686E096E00995F2
:10215000109205060E94C10F36C084E0809371067C
:102160001092270610922606E0916C06F0916D06FB
:10217000099580912606811105C081E0809326068D
:1021800010922806E091270681E08E0F80932706A3
:10219000F0E0E85DF94F80818093BB0090912706C5
:1021A00080912606981708F47ACF85E88093BC00C2
:1021B0000AC085EC8093BC001092710604C0109296
:1021C00004060E94B70FFF91EF91BF91AF919F91CD
:1021D0008F917F916F915F914F913F912F910F90D0
:1021E0000FBE0F901F9018950F93FC01138212825F
:1021F00088EC91E091838083648340872187028704
:1022000088E083870F9108951F93CF93DF93EC01AC
:10221000162F6C8182EB95E00E94090FE091B205C8
:10222000F091B3056B85612B0190F081E02D82EB7D
:1022300095E0099582EB95E0DF91CF911F910C9489
:10224000260FFC01138660E00C94041128E0FC01C9
:10225000238760E00C9404111F93CF93DF93EC016C
:10226000162F64600E94041181E090E00E94BB126E
:10227000612F6B7FCE010E94041182E390E0DF9119
:10228000CF911F910C94BB121F93CF93DF93EC015E
:10229000162F0E940411612FCE01DF91CF911F9163
:1022A0000C942C11EF92FF921F93CF93DF931F9208
:1022B000CDB7DEB77C01162F607F642B49830E9467
:1022C000441180E1189FB00111244981642BC7019A
:1022D0000F90DF91CF911F91FF90EF900C944411DC
:1022E00040E00C94521161E00E94701180ED97E083
:1022F0000C94BB1262E00E94701180ED97E00C9488
:10230000BB12CF93DF93CDB7DEB728970FB6F89403
:10231000DEBF0FBECDBF28E0E8E4F1E0DE0111969C
:1023200001900D922A95E1F7FC012185241710F404
:102330004FEF420FFE013196E40FF11DE40FF11D46
:102340002081260F2068622F28960FB6F894DEBFF2
:102350000FBECDBFDF91CF910C947011FC0166814F
:10236000262F246026836C600C94701141E00E943B
:10237000521181E090E00895CF93DF93EC0182EB5E
:1023800095E00E94FF0E1D828985823010F098E052
:102390009D839A85992329F0813019F48D81846079
:1023A0008D8362E370E080E090E00E9493126B8581
:1023B000CE010E94041168EE73E080E090E00E947C
:1023C000931260E3CE010E94441184E991E10E94DE
:1023D000BB1260E3CE010E94441184E991E10E94A6
:1023E000BB1260E3CE010E94441186E990E00E9496
:1023F000BB1260E2CE010E9444116D816062CE0189
:102400000E94701184E08E83CE010E94AE11CE0135
:102410000E94731182E08F8366E0CE010E947011EA
:10242000CE01DF91CF910C947A1161110C94261199
:102430000C9421111F920F920FB60F9211242F931B
:102440003F938F939F93AF93BF9380917306909127
:102450007406A0917506B09176063091720623E05D
:10246000230F2D3720F40196A11DB11D05C026E8CC
:10247000230F0296A11DB11D20937206809373064F
:1024800090937406A0937506B093760680917706B4
:1024900090917806A0917906B0917A060196A11DD7
:1024A000B11D8093770690937806A0937906B09338
:1024B0007A06BF91AF919F918F913F912F910F908D
:1024C0000FBE0F901F9018952FB7F8946091730668
:1024D0007091740680917506909176062FBF0895CD
:1024E0003FB7F8948091770690917806A09179068D
:1024F000B0917A0626B5A89B05C02F3F19F001962A
:10250000A11DB11D3FBF6627782F892F9A2F620F1B
:10251000711D811D911D42E0660F771F881F991F55
:102520004A95D1F70895CF92DF92EF92FF92CF9321
:10253000DF936B017C010E947012EB01C114D10486
:10254000E104F10489F00E9458170E9470126C1B7C
:102550007D0B683E734090F381E0C81AD108E10812
:10256000F108C851DC4FEACFDF91CF91FF90EF9097
:10257000DF90CF9008958230910538F0880F991F31
:10258000880F991F05970197F1F70895789484B5FE
:10259000826084BD84B5816084BD85B5826085BD5F
:1025A00085B5816085BDEEE6F0E080818160808345
:1025B000E1E8F0E010828081826080838081816028
:1025C0008083E0E8F0E0808181608083E1EBF0E0EF
:1025D000808184608083E0EBF0E080818160808393
:1025E000EAE7F0E08081846080838081826080837C
:1025F0008081816080838081806880831092C100A7
:1026000008951F93CF93DF93182FEB0161E00E9491
:102610008913209711F460E004C0CF3FD10539F44D
:1026200061E0812FDF91CF911F910C94C213E12FB4
:10263000F0E0E155FC4FE491E330F9F048F4E1308B
:10264000B9F0E230A1F584B5806284BDC8BD34C064
:10265000E730E9F0E83019F1E43049F58091800085
:10266000806280938000D0938B00C0938A0024C046
:1026700084B5806884BDC7BD1FC08091800080681C
:1026800080938000D0938900C093880015C080910A
:10269000B00080688093B000C093B3000DC08091FB
:1026A000B00080628093B000C093B40005C0C03811
:1026B000D1050CF0B5CFAFCFDF91CF911F91089529
:1026C000833081F028F4813099F08230A1F00895B0
:1026D0008730A9F08830B9F08430D1F4809180003F
:1026E0008F7D03C0809180008F7780938000089554
:1026F00084B58F7702C084B58F7D84BD08958091A5
:10270000B0008F7703C08091B0008F7D8093B000C0
:102710000895CF93DF9390E0FC01ED53FC4F24919B
:10272000FC01E952FC4F8491882349F190E0880F25
:10273000991FFC01E150FC4FA591B4918B509C4F27
:10274000FC01C591D4919FB7611108C0F8948C9198
:10275000209582238C93888182230AC0623051F4B1
:10276000F8948C91322F309583238C938881822B1F
:10277000888304C0F8948C91822B8C939FBFDF9147
:10278000CF9108950F931F93CF93DF931F92CDB7EF
:10279000DEB7282F30E0F901E155FC4F8491F901B3
:1027A000ED53FC4F1491F901E952FC4F04910023C1
:1027B000C9F0882321F069830E9460136981E02FAA
:1027C000F0E0EE0FFF1FEB50FC4FA591B4919FB7C7
:1027D000F8948C91611103C01095812301C0812B65
:1027E0008C939FBF0F90DF91CF911F910F91089510
:1027F000CF93DF93282F30E0F901E155FC4F84910E
:10280000F901ED53FC4FD491F901E952FC4FC49109
:10281000CC2391F081110E946013EC2FF0E0EE0FB9
:10282000FF1FE551FC4FA591B4912C912D2381E020
:1028300090E021F480E002C080E090E0DF91CF9151
:102840000895FC01818D228D90E0805C9F4F821B5A
:1028500091098F7399270895FC01918D828D9817A6
:1028600031F0828DE80FF11D858D90E008958FEF96
:102870009FEF0895FC01918D828D981761F0828DF4
:10288000DF01A80FB11D5D968C91928D9F5F9F73A4
:10289000928F90E008958FEF9FEF08958EEB95E172
:1028A000892B49F080E090E0892B29F00E94BE1529
:1028B00081110C9400000895FC01848DDF01A80FA4
:1028C000B11DA35ABF4F2C91848D90E001968F7358
:1028D0009927848FA689B7892C93A089B1898C9177
:1028E00080648C93938D848D981306C00288F3893D
:1028F000E02D80818F7D80830895CF93DF93EC015D
:10290000888D8823C9F0EA89FB89808185FD05C00F
:10291000A889B9898C9186FD0FC00FB607FCF5CF49
:10292000808185FFF2CFA889B9898C9185FFEDCF91
:10293000CE010E945C14E7CFDF91CF910895CF9232
:10294000DF92FF920F931F93CF93DF931F92CDB728
:10295000DEB76C0181E0D60158968C9358975B9650
:102960009C915B975C968C915C97981307C05096EE
:10297000ED91FC915197808185FD2EC0F601038D6C
:1029800010E00F5F1F4F0F731127F02EF601848D9B
:10299000F81211C00FB607FCF9CFD6015096ED9191
:1029A000FC915197808185FFF1CFC60169830E9418
:1029B0005C146981EBCF838DE80FF11DE35AFF4F63
:1029C0006083D6015B960C935B975296ED91FC91D8
:1029D0005397808180620CC0D6015696ED91FC9190
:1029E000579760835096ED91FC9151978081806458
:1029F000808381E090E00F90DF91CF911F910F9144
:102A0000FF90DF90CF900895BF92CF92DF92EF9228
:102A1000FF92CF93DF93EC016A017B01B22EE8892C
:102A2000F98982E08083411581EE580761057105BF
:102A3000A1F060E079E08DE390E0A70196010E94AB
:102A40000619215031094109510956954795379585
:102A50002795211580E1380798F0E889F9891082D7
:102A600060E874E88EE190E0A70196010E940619E3
:102A700021503109410951095695479537952795B8
:102A8000EC85FD853083EE85FF852083188EEC89EB
:102A9000FD89B082EA89FB89808180618083EA892F
:102AA000FB89808188608083EA89FB8980818068D6
:102AB0008083EA89FB8980818F7D8083DF91CF913C
:102AC000FF90EF90DF90CF90BF9008951F920F92EC
:102AD0000FB60F9211242F938F939F93EF93FF9331
:102AE000E0918B06F0918C068081E0919106F09147
:102AF000920682FD12C09081809194068F5F8F7341
:102B000020919506821751F0E0919406F0E0E55887
:102B1000F94F958F8093940601C08081FF91EF91CA
:102B20009F918F912F910F900FBE0F901F9018952E
:102B30001F920F920FB60F9211242F933F934F9332
:102B40005F936F937F938F939F93AF93BF93EF9315
:102B5000FF938BE796E00E945C14FF91EF91BF9189
:102B6000AF919F918F917F916F915F914F913F9125
:102B70002F910F900FBE0F901F9018958BE796E046
:102B80000E94211421E0892B09F420E0822F08956E
:102B900010927E0610927D0688EE93E0A0E0B0E0F1
:102BA00080937F0690938006A0938106B09382065F
:102BB00080ED91E090937C0680937B0685EC90E01D
:102BC000909388068093870684EC90E090938A0621
:102BD0008093890680EC90E090938C0680938B061E
:102BE00081EC90E090938E0680938D0682EC90E0CD
:102BF0009093900680938F0686EC90E090939206D7
:102C00008093910610929406109295061092960663
:102C100010929706089508950E94C6120E940B16FE
:102C20000E946D05CEE4D4E10E9410042097E1F3E8
:102C30000E944E14F9CFCF92DF92EF92FF920F9342
:102C40001F93CF93DF936C017A01EB01E60EF71E21
:102C500000E010E0CE15DF0561F06991D601ED913D
:102C6000FC910190F081E02DC6010995080F191F14
:102C7000F1CFC801DF91CF911F910F91FF90EF909D
:102C8000DF90CF9008956115710581F0DB010D9003
:102C90000020E9F7AD0141505109461B570BDC01FB
:102CA000ED91FC910280F381E02D099480E090E0A9
:102CB0000895EF92FF920F931F93CF93DF938C01B0
:102CC000FB01C0E0D0E064917F018FEFE81AF80AC1
:102CD000662361F0D801ED91FC910190F081E02D27
:102CE000C8010995C80FD91FF701EDCFCE01DF91BB
:102CF000CF911F910F91FF90EF900895DC01ED911E
:102D0000FC910190F081E02D09946CED71E00C9440
:102D100043160F931F93CF93DF93EC010E94591634
:102D20008C01CE010E948516800F911FDF91CF91FB
:102D30001F910F9108950F931F93CF93DF93EC0191
:102D40000E9443168C01CE010E948516800F911FB0
:102D5000DF91CF911F910F9108958F929F92AF9223
:102D6000BF92CF92DF92EF92FF920F931F93CF9378
:102D7000DF93CDB7DEB7A1970FB6F894DEBF0FBED5
:102D8000CDBF7C01C42EE52FCB01D22E19A221E0AC
:102D90002D1510F02AE0D22E8E010F5D1F4F8D2CC5
:102DA000912CA12CB12C6C2D7E2FA50194010E9499
:102DB00006198C2DD29E80191124015011098A30D8
:102DC00014F4805D01C0895CF80180832115310510
:102DD0004105510521F0C22EE32FCA01E4CFB8010D
:102DE000C7010E944316A1960FB6F894DEBF0FBE2E
:102DF000CDBFDF91CF911F910F91FF90EF90DF90AA
:102E0000CF90BF90AF909F908F900895CF92DF9218
:102E1000EF92FF920F931F93CF93DF93EC016A0120
:102E20007B012115310579F4E881F9810190F08168
:102E3000E02D642FDF91CF911F910F91FF90EF90C4
:102E4000DF90CF9009942A303105E9F477FF1AC05A
:102E50006DE20E947E168C0144275527BA014C1959
:102E60005D096E097F092AE0CE010E94AD16800F30
:102E7000911FDF91CF911F910F91FF90EF90DF9005
:102E8000CF9008952AE0B701A601CE01DF91CF913E
:102E90001F910F91FF90EF90DF90CF900C94AD16A3
:102EA0009A01AB01662757FD6095762F0C940617A3
:102EB00008950CD0E6C0DED040F0D5D030F021F43B
:102EC0005F3F19F0C7C0511110C1CAC0EBD098F3D1
:102ED0009923C9F35523B1F3951B550BBB27AA279B
:102EE00062177307840738F09F5F5F4F220F331F0D
:102EF000441FAA1FA9F333D00E2E3AF0E0E830D0D9
:102F000091505040E695001CCAF729D0FE2F27D0DB
:102F1000660F771F881FBB1F261737074807AB07A9
:102F2000B0E809F0BB0B802DBF01FF2793585F4F1E
:102F30002AF09E3F510568F08DC0D7C05F3FECF38B
:102F4000983EDCF3869577956795B795F7959F5FE3
:102F5000C9F7880F911D9695879597F90895E1E037
:102F6000660F771F881FBB1F621773078407BA0796
:102F700020F0621B730B840BBA0BEE1F88F7E095F1
:102F8000089598D088F09F5790F0B92F9927B7519E
:102F9000A0F0D1F0660F771F881F991F1AF0BA951D
:102FA000C9F712C0B13081F09FD0B1E008959CC044
:102FB000672F782F8827B85F39F0B93FCCF3869513
:102FC00077956795B395D9F73EF490958095709570
:102FD00061957F4F8F4F9F4F0895E89409C097FBED
:102FE0003EF490958095709561957F4F8F4F9F4FE0
:102FF0009923A9F0F92F96E9BB279395F695879524
:1030000077956795B795F111F8CFFAF4BB0F11F4E6
:1030100060FF1BC06F5F7F4F8F4F9F4F16C088238D
:1030200011F096E911C0772321F09EE8872F762FC3
:1030300005C0662371F096E8862F70E060E02AF004
:103040009A95660F771F881FDAF7880F96958795F0
:1030500097F9089597F99F6780E870E060E0089518
:103060009FEF80EC089500240A94161617061806A0
:103070000906089500240A9412161306140605067C
:103080000895092E0394000C11F4882352F0BB0F0D
:1030900040F4BF2B11F460FF04C06F5F7F4F8F4F70
:1030A0009F4F089557FD9058440F551F59F05F3FAB
:1030B00071F04795880F97FB991F61F09F3F79F05A
:1030C00087950895121613061406551FF2CF4695DC
:1030D000F1DF08C0161617061806991FF1CF86955E
:1030E0007105610508940895E894BB276627772742
:1030F000CB0197F908950BD0C4CFB5DF28F0BADF24
:1031000018F0952309F0A6CFABCF1124EECFCADF7C
:10311000A0F3959FD1F3950F50E0551F629FF001EA
:10312000729FBB27F00DB11D639FAA27F00DB11D43
:10313000AA1F649F6627B00DA11D661F829F2227CC
:10314000B00DA11D621F739FB00DA11D621F839F53
:10315000A00D611D221F749F3327A00D611D231F29
:10316000849F600D211D822F762F6A2F11249F5777
:1031700050408AF0E1F088234AF0EE0FFF1FBB1F9A
:10318000661F771F881F91505040A9F79E3F510539
:1031900070F060CFAACF5F3FECF3983EDCF38695EA
:1031A00077956795B795F795E7959F5FC1F7FE2BE4
:1031B000880F911D9695879597F90895AA1BBB1BBB
:1031C00051E107C0AA1FBB1FA617B70710F0A61B27
:1031D000B70B881F991F5A95A9F780959095BC0148
:1031E000CD01089597FB072E16F4009407D077FDC4
:1031F00009D00E94DE1807FC05D03EF49095819519
:103200009F4F0895709561957F4F0895A1E21A2E02
:10321000AA1BBB1BFD010DC0AA1FBB1FEE1FFF1F7A
:10322000A217B307E407F50720F0A21BB30BE40BCA
:10323000F50B661F771F881F991F1A9469F7609511
:103240007095809590959B01AC01BD01CF010895CB
:10325000052E97FB1EF400940E943F1957FD07D0DE
:103260000E94061907FC03D04EF40C943F195095A8
:103270004095309521953F4F4F4F5F4F0895909562
:103280008095709561957F4F8F4F9F4F0895EE0FFA
:10329000FF1F0590F491E02D099414E0C2E1D4E001
:1032A00004C0FE010E9449192296C431D107C9F712
:0432B000F894FFCFC0
:1032B4008C688E9E9040608C688E9E904064AE9226
:1032C400888A624062AE92888A64406303F02F3138
:1032D400353034353268343835312E32304E2F3073
:1032E400303232302E393245235048473731363068
:1032F400342F202044696769000040001400540002
:1033040041542B444D4F53455447524F55503D3033
:103314002C3134342E383030302C3134342E383093
:1033240030302C303030302C342C303030300041C0
:10333400542B444D4F534554564F4C554D453D38F1
:103344000041542B53455446494C5445523D302C6E
:10335400302C30000000000035061B16A1061406B0
:103364008706B90600000000C00E930E680E700EAA
:10337400830E920E00000000B6111B160000000020
:103384009F141B1621143A142C147D140D0A006E7C
:0E339400616E00696E66006F7666002E0000A6
:00000001FF
